{
  "_format": "hh-sol-artifact-1",
  "contractName": "EIP712MetaTransaction",
  "sourceName": "contracts/EIP712MetaTransaction.sol",
  "abi": [
    {
      "inputs": [
        {
          "internalType": "string",
          "name": "name",
          "type": "string"
        },
        {
          "internalType": "string",
          "name": "version",
          "type": "string"
        }
      ],
      "stateMutability": "nonpayable",
      "type": "constructor"
    },
    {
      "anonymous": false,
      "inputs": [
        {
          "indexed": false,
          "internalType": "address",
          "name": "userAddress",
          "type": "address"
        },
        {
          "indexed": false,
          "internalType": "address payable",
          "name": "relayerAddress",
          "type": "address"
        },
        {
          "indexed": false,
          "internalType": "bytes",
          "name": "functionSignature",
          "type": "bytes"
        }
      ],
      "name": "MetaTransactionExecuted",
      "type": "event"
    },
    {
      "inputs": [
        {
          "internalType": "address",
          "name": "userAddress",
          "type": "address"
        },
        {
          "internalType": "bytes",
          "name": "functionSignature",
          "type": "bytes"
        },
        {
          "internalType": "bytes32",
          "name": "sigR",
          "type": "bytes32"
        },
        {
          "internalType": "bytes32",
          "name": "sigS",
          "type": "bytes32"
        },
        {
          "internalType": "uint8",
          "name": "sigV",
          "type": "uint8"
        }
      ],
      "name": "executeMetaTransaction",
      "outputs": [
        {
          "internalType": "bytes",
          "name": "",
          "type": "bytes"
        }
      ],
      "stateMutability": "payable",
      "type": "function"
    },
    {
      "inputs": [
        {
          "internalType": "address",
          "name": "user",
          "type": "address"
        }
      ],
      "name": "getNonce",
      "outputs": [
        {
          "internalType": "uint256",
          "name": "nonce",
          "type": "uint256"
        }
      ],
      "stateMutability": "view",
      "type": "function"
    }
  ],
  "bytecode": "0x608060405234801561001057600080fd5b50604051610a35380380610a3583398101604081905261002f9161014d565b81816040518060800160405280604f81526020016109e6604f91398051906020012082805190602001208280519060200120306100706100a960201b60201c565b6040516100849594939291906020016101ad565b60405160208183030381529060405280519060200120600081905550505050506101ef565b4690565b600082601f8301126100bd578081fd5b81516001600160401b03808211156100d7576100d76101d9565b6040516020601f8401601f19168201810183811183821017156100fc576100fc6101d9565b6040528382528584018101871015610112578485fd5b8492505b838310156101335785830181015182840182015291820191610116565b8383111561014357848185840101525b5095945050505050565b6000806040838503121561015f578182fd5b82516001600160401b0380821115610175578384fd5b610181868387016100ad565b93506020850151915080821115610196578283fd5b506101a3858286016100ad565b9150509250929050565b948552602085019390935260408401919091526001600160a01b03166060830152608082015260a00190565b634e487b7160e01b600052604160045260246000fd5b6107e8806101fe6000396000f3fe6080604052600436106100295760003560e01c80630c53c51c1461002e5780632d0335ab14610057575b600080fd5b61004161003c366004610401565b610084565b60405161004e91906105e9565b60405180910390f35b34801561006357600080fd5b506100776100723660046103e7565b610245565b60405161004e91906106fc565b6060600061009186610260565b90506000356001600160e01b031990811690821614156100cc5760405162461bcd60e51b81526004016100c390610633565b60405180910390fd5b604080516060810182526001600160a01b038916600081815260016020908152908490205483528201529081018790526101098882888888610280565b6101255760405162461bcd60e51b81526004016100c3906106bb565b6001600160a01b03881660009081526001602081905260409091205461014a9161032c565b6001600160a01b038916600090815260016020908152604080832093909355915190918291309161017f918c918e9101610520565b60408051601f198184030181529082905261019991610504565b6000604051808303816000865af19150503d80600081146101d6576040519150601f19603f3d011682016040523d82523d6000602084013e6101db565b606091505b5091509150816101fd5760405162461bcd60e51b81526004016100c3906105fc565b7f5845892132946850460bff5a0083f71031bc5bf9aadcd40f1de79423eac9b10b8a338b60405161023093929190610572565b60405180910390a19998505050505050505050565b6001600160a01b031660009081526001602052604090205490565b60008151600014156102745750600061027b565b5060208101515b919050565b60008060016102966102918861033f565b61039d565b848787604051600081526020016040526040516102b694939291906105cb565b6020604051602081039080840390855afa1580156102d8573d6000803e3d6000fd5b5050604051601f1901519150506001600160a01b03811661030b5760405162461bcd60e51b81526004016100c390610690565b866001600160a01b0316816001600160a01b03161491505095945050505050565b60006103388284610705565b9392505050565b6000604051806080016040528060438152602001610770604391398051602091820120835184830151604080870151805190860120905161038095016105a7565b604051602081830303815290604052805190602001209050919050565b60006103a76103b9565b82604051602001610380929190610557565b60005490565b80356001600160a01b038116811461027b57600080fd5b803560ff8116811461027b57600080fd5b6000602082840312156103f8578081fd5b610338826103bf565b600080600080600060a08688031215610418578081fd5b610421866103bf565b945060208087013567ffffffffffffffff8082111561043e578384fd5b818901915089601f830112610451578384fd5b81358181111561046357610463610759565b604051601f8201601f191681018501838111828210171561048657610486610759565b60405281815283820185018c101561049c578586fd5b8185850186830137908101909301849052509094505060408601359250606086013591506104cc608087016103d6565b90509295509295909350565b600081518084526104f0816020860160208601610729565b601f01601f19169290920160200192915050565b60008251610516818460208701610729565b9190910192915050565b60008351610532818460208801610729565b60609390931b6bffffffffffffffffffffffff19169190920190815260140192915050565b61190160f01b81526002810192909252602282015260420190565b6001600160a01b0384811682528316602082015260606040820181905260009061059e908301846104d8565b95945050505050565b93845260208401929092526001600160a01b03166040830152606082015260800190565b93845260ff9290921660208401526040830152606082015260800190565b60006020825261033860208301846104d8565b6020808252601c908201527f46756e6374696f6e2063616c6c206e6f74207375636365737366756c00000000604082015260600190565b6020808252603d908201527f66756e6374696f6e5369676e61747572652063616e206e6f74206265206f662060408201527f657865637574654d6574615472616e73616374696f6e206d6574686f64000000606082015260800190565b602080825260119082015270496e76616c6964207369676e617475726560781b604082015260600190565b60208082526021908201527f5369676e657220616e64207369676e617475726520646f206e6f74206d6174636040820152600d60fb1b606082015260800190565b90815260200190565b6000821982111561072457634e487b7160e01b81526011600452602481fd5b500190565b60005b8381101561074457818101518382015260200161072c565b83811115610753576000848401525b50505050565b634e487b7160e01b600052604160045260246000fdfe4d6574615472616e73616374696f6e2875696e74323536206e6f6e63652c616464726573732066726f6d2c62797465732066756e6374696f6e5369676e617475726529a264697066735822122021b66f703ce773d51452a6da0ccc7e555f53c8531dec8f39c8f0c385637ba3ad64736f6c63430008000033454950373132446f6d61696e28737472696e67206e616d652c737472696e672076657273696f6e2c6164647265737320766572696679696e67436f6e74726163742c627974657333322073616c7429",
  "linkReferences": {},
  "deployedLinkReferences": {}
}