{
  "contracts/EIP712MetaTransaction.sol": {
    "EIP712MetaTransaction": {
      "abi": [
        {
          "inputs": [
            {
              "internalType": "string",
              "name": "name",
              "type": "string"
            },
            {
              "internalType": "string",
              "name": "version",
              "type": "string"
            }
          ],
          "stateMutability": "nonpayable",
          "type": "constructor"
        },
        {
          "anonymous": false,
          "inputs": [
            {
              "indexed": false,
              "internalType": "address",
              "name": "userAddress",
              "type": "address"
            },
            {
              "indexed": false,
              "internalType": "address payable",
              "name": "relayerAddress",
              "type": "address"
            },
            {
              "indexed": false,
              "internalType": "bytes",
              "name": "functionSignature",
              "type": "bytes"
            }
          ],
          "name": "MetaTransactionExecuted",
          "type": "event"
        },
        {
          "inputs": [
            {
              "internalType": "address",
              "name": "userAddress",
              "type": "address"
            },
            {
              "internalType": "bytes",
              "name": "functionSignature",
              "type": "bytes"
            },
            {
              "internalType": "bytes32",
              "name": "sigR",
              "type": "bytes32"
            },
            {
              "internalType": "bytes32",
              "name": "sigS",
              "type": "bytes32"
            },
            {
              "internalType": "uint8",
              "name": "sigV",
              "type": "uint8"
            }
          ],
          "name": "executeMetaTransaction",
          "outputs": [
            {
              "internalType": "bytes",
              "name": "",
              "type": "bytes"
            }
          ],
          "stateMutability": "payable",
          "type": "function"
        },
        {
          "inputs": [
            {
              "internalType": "address",
              "name": "user",
              "type": "address"
            }
          ],
          "name": "getNonce",
          "outputs": [
            {
              "internalType": "uint256",
              "name": "nonce",
              "type": "uint256"
            }
          ],
          "stateMutability": "view",
          "type": "function"
        }
      ],
      "evm": {
        "bytecode": {
          "linkReferences": {},
          "object": "608060405234801561001057600080fd5b50604051610a35380380610a3583398101604081905261002f9161014d565b81816040518060800160405280604f81526020016109e6604f91398051906020012082805190602001208280519060200120306100706100a960201b60201c565b6040516100849594939291906020016101ad565b60405160208183030381529060405280519060200120600081905550505050506101ef565b4690565b600082601f8301126100bd578081fd5b81516001600160401b03808211156100d7576100d76101d9565b6040516020601f8401601f19168201810183811183821017156100fc576100fc6101d9565b6040528382528584018101871015610112578485fd5b8492505b838310156101335785830181015182840182015291820191610116565b8383111561014357848185840101525b5095945050505050565b6000806040838503121561015f578182fd5b82516001600160401b0380821115610175578384fd5b610181868387016100ad565b93506020850151915080821115610196578283fd5b506101a3858286016100ad565b9150509250929050565b948552602085019390935260408401919091526001600160a01b03166060830152608082015260a00190565b634e487b7160e01b600052604160045260246000fd5b6107e8806101fe6000396000f3fe6080604052600436106100295760003560e01c80630c53c51c1461002e5780632d0335ab14610057575b600080fd5b61004161003c366004610401565b610084565b60405161004e91906105e9565b60405180910390f35b34801561006357600080fd5b506100776100723660046103e7565b610245565b60405161004e91906106fc565b6060600061009186610260565b90506000356001600160e01b031990811690821614156100cc5760405162461bcd60e51b81526004016100c390610633565b60405180910390fd5b604080516060810182526001600160a01b038916600081815260016020908152908490205483528201529081018790526101098882888888610280565b6101255760405162461bcd60e51b81526004016100c3906106bb565b6001600160a01b03881660009081526001602081905260409091205461014a9161032c565b6001600160a01b038916600090815260016020908152604080832093909355915190918291309161017f918c918e9101610520565b60408051601f198184030181529082905261019991610504565b6000604051808303816000865af19150503d80600081146101d6576040519150601f19603f3d011682016040523d82523d6000602084013e6101db565b606091505b5091509150816101fd5760405162461bcd60e51b81526004016100c3906105fc565b7f5845892132946850460bff5a0083f71031bc5bf9aadcd40f1de79423eac9b10b8a338b60405161023093929190610572565b60405180910390a19998505050505050505050565b6001600160a01b031660009081526001602052604090205490565b60008151600014156102745750600061027b565b5060208101515b919050565b60008060016102966102918861033f565b61039d565b848787604051600081526020016040526040516102b694939291906105cb565b6020604051602081039080840390855afa1580156102d8573d6000803e3d6000fd5b5050604051601f1901519150506001600160a01b03811661030b5760405162461bcd60e51b81526004016100c390610690565b866001600160a01b0316816001600160a01b03161491505095945050505050565b60006103388284610705565b9392505050565b6000604051806080016040528060438152602001610770604391398051602091820120835184830151604080870151805190860120905161038095016105a7565b604051602081830303815290604052805190602001209050919050565b60006103a76103b9565b82604051602001610380929190610557565b60005490565b80356001600160a01b038116811461027b57600080fd5b803560ff8116811461027b57600080fd5b6000602082840312156103f8578081fd5b610338826103bf565b600080600080600060a08688031215610418578081fd5b610421866103bf565b945060208087013567ffffffffffffffff8082111561043e578384fd5b818901915089601f830112610451578384fd5b81358181111561046357610463610759565b604051601f8201601f191681018501838111828210171561048657610486610759565b60405281815283820185018c101561049c578586fd5b8185850186830137908101909301849052509094505060408601359250606086013591506104cc608087016103d6565b90509295509295909350565b600081518084526104f0816020860160208601610729565b601f01601f19169290920160200192915050565b60008251610516818460208701610729565b9190910192915050565b60008351610532818460208801610729565b60609390931b6bffffffffffffffffffffffff19169190920190815260140192915050565b61190160f01b81526002810192909252602282015260420190565b6001600160a01b0384811682528316602082015260606040820181905260009061059e908301846104d8565b95945050505050565b93845260208401929092526001600160a01b03166040830152606082015260800190565b93845260ff9290921660208401526040830152606082015260800190565b60006020825261033860208301846104d8565b6020808252601c908201527f46756e6374696f6e2063616c6c206e6f74207375636365737366756c00000000604082015260600190565b6020808252603d908201527f66756e6374696f6e5369676e61747572652063616e206e6f74206265206f662060408201527f657865637574654d6574615472616e73616374696f6e206d6574686f64000000606082015260800190565b602080825260119082015270496e76616c6964207369676e617475726560781b604082015260600190565b60208082526021908201527f5369676e657220616e64207369676e617475726520646f206e6f74206d6174636040820152600d60fb1b606082015260800190565b90815260200190565b6000821982111561072457634e487b7160e01b81526011600452602481fd5b500190565b60005b8381101561074457818101518382015260200161072c565b83811115610753576000848401525b50505050565b634e487b7160e01b600052604160045260246000fdfe4d6574615472616e73616374696f6e2875696e74323536206e6f6e63652c616464726573732066726f6d2c62797465732066756e6374696f6e5369676e617475726529a264697066735822122021b66f703ce773d51452a6da0ccc7e555f53c8531dec8f39c8f0c385637ba3ad64736f6c63430008000033454950373132446f6d61696e28737472696e67206e616d652c737472696e672076657273696f6e2c6164647265737320766572696679696e67436f6e74726163742c627974657333322073616c7429",
          "opcodes": "PUSH1 0x80 PUSH1 0x40 MSTORE CALLVALUE DUP1 ISZERO PUSH2 0x10 JUMPI PUSH1 0x0 DUP1 REVERT JUMPDEST POP PUSH1 0x40 MLOAD PUSH2 0xA35 CODESIZE SUB DUP1 PUSH2 0xA35 DUP4 CODECOPY DUP2 ADD PUSH1 0x40 DUP2 SWAP1 MSTORE PUSH2 0x2F SWAP2 PUSH2 0x14D JUMP JUMPDEST DUP2 DUP2 PUSH1 0x40 MLOAD DUP1 PUSH1 0x80 ADD PUSH1 0x40 MSTORE DUP1 PUSH1 0x4F DUP2 MSTORE PUSH1 0x20 ADD PUSH2 0x9E6 PUSH1 0x4F SWAP2 CODECOPY DUP1 MLOAD SWAP1 PUSH1 0x20 ADD KECCAK256 DUP3 DUP1 MLOAD SWAP1 PUSH1 0x20 ADD KECCAK256 DUP3 DUP1 MLOAD SWAP1 PUSH1 0x20 ADD KECCAK256 ADDRESS PUSH2 0x70 PUSH2 0xA9 PUSH1 0x20 SHL PUSH1 0x20 SHR JUMP JUMPDEST PUSH1 0x40 MLOAD PUSH2 0x84 SWAP6 SWAP5 SWAP4 SWAP3 SWAP2 SWAP1 PUSH1 0x20 ADD PUSH2 0x1AD JUMP JUMPDEST PUSH1 0x40 MLOAD PUSH1 0x20 DUP2 DUP4 SUB SUB DUP2 MSTORE SWAP1 PUSH1 0x40 MSTORE DUP1 MLOAD SWAP1 PUSH1 0x20 ADD KECCAK256 PUSH1 0x0 DUP2 SWAP1 SSTORE POP POP POP POP POP PUSH2 0x1EF JUMP JUMPDEST CHAINID SWAP1 JUMP JUMPDEST PUSH1 0x0 DUP3 PUSH1 0x1F DUP4 ADD SLT PUSH2 0xBD JUMPI DUP1 DUP2 REVERT JUMPDEST DUP2 MLOAD PUSH1 0x1 PUSH1 0x1 PUSH1 0x40 SHL SUB DUP1 DUP3 GT ISZERO PUSH2 0xD7 JUMPI PUSH2 0xD7 PUSH2 0x1D9 JUMP JUMPDEST PUSH1 0x40 MLOAD PUSH1 0x20 PUSH1 0x1F DUP5 ADD PUSH1 0x1F NOT AND DUP3 ADD DUP2 ADD DUP4 DUP2 GT DUP4 DUP3 LT OR ISZERO PUSH2 0xFC JUMPI PUSH2 0xFC PUSH2 0x1D9 JUMP JUMPDEST PUSH1 0x40 MSTORE DUP4 DUP3 MSTORE DUP6 DUP5 ADD DUP2 ADD DUP8 LT ISZERO PUSH2 0x112 JUMPI DUP5 DUP6 REVERT JUMPDEST DUP5 SWAP3 POP JUMPDEST DUP4 DUP4 LT ISZERO PUSH2 0x133 JUMPI DUP6 DUP4 ADD DUP2 ADD MLOAD DUP3 DUP5 ADD DUP3 ADD MSTORE SWAP2 DUP3 ADD SWAP2 PUSH2 0x116 JUMP JUMPDEST DUP4 DUP4 GT ISZERO PUSH2 0x143 JUMPI DUP5 DUP2 DUP6 DUP5 ADD ADD MSTORE JUMPDEST POP SWAP6 SWAP5 POP POP POP POP POP JUMP JUMPDEST PUSH1 0x0 DUP1 PUSH1 0x40 DUP4 DUP6 SUB SLT ISZERO PUSH2 0x15F JUMPI DUP2 DUP3 REVERT JUMPDEST DUP3 MLOAD PUSH1 0x1 PUSH1 0x1 PUSH1 0x40 SHL SUB DUP1 DUP3 GT ISZERO PUSH2 0x175 JUMPI DUP4 DUP5 REVERT JUMPDEST PUSH2 0x181 DUP7 DUP4 DUP8 ADD PUSH2 0xAD JUMP JUMPDEST SWAP4 POP PUSH1 0x20 DUP6 ADD MLOAD SWAP2 POP DUP1 DUP3 GT ISZERO PUSH2 0x196 JUMPI DUP3 DUP4 REVERT JUMPDEST POP PUSH2 0x1A3 DUP6 DUP3 DUP7 ADD PUSH2 0xAD JUMP JUMPDEST SWAP2 POP POP SWAP3 POP SWAP3 SWAP1 POP JUMP JUMPDEST SWAP5 DUP6 MSTORE PUSH1 0x20 DUP6 ADD SWAP4 SWAP1 SWAP4 MSTORE PUSH1 0x40 DUP5 ADD SWAP2 SWAP1 SWAP2 MSTORE PUSH1 0x1 PUSH1 0x1 PUSH1 0xA0 SHL SUB AND PUSH1 0x60 DUP4 ADD MSTORE PUSH1 0x80 DUP3 ADD MSTORE PUSH1 0xA0 ADD SWAP1 JUMP JUMPDEST PUSH4 0x4E487B71 PUSH1 0xE0 SHL PUSH1 0x0 MSTORE PUSH1 0x41 PUSH1 0x4 MSTORE PUSH1 0x24 PUSH1 0x0 REVERT JUMPDEST PUSH2 0x7E8 DUP1 PUSH2 0x1FE PUSH1 0x0 CODECOPY PUSH1 0x0 RETURN INVALID PUSH1 0x80 PUSH1 0x40 MSTORE PUSH1 0x4 CALLDATASIZE LT PUSH2 0x29 JUMPI PUSH1 0x0 CALLDATALOAD PUSH1 0xE0 SHR DUP1 PUSH4 0xC53C51C EQ PUSH2 0x2E JUMPI DUP1 PUSH4 0x2D0335AB EQ PUSH2 0x57 JUMPI JUMPDEST PUSH1 0x0 DUP1 REVERT JUMPDEST PUSH2 0x41 PUSH2 0x3C CALLDATASIZE PUSH1 0x4 PUSH2 0x401 JUMP JUMPDEST PUSH2 0x84 JUMP JUMPDEST PUSH1 0x40 MLOAD PUSH2 0x4E SWAP2 SWAP1 PUSH2 0x5E9 JUMP JUMPDEST PUSH1 0x40 MLOAD DUP1 SWAP2 SUB SWAP1 RETURN JUMPDEST CALLVALUE DUP1 ISZERO PUSH2 0x63 JUMPI PUSH1 0x0 DUP1 REVERT JUMPDEST POP PUSH2 0x77 PUSH2 0x72 CALLDATASIZE PUSH1 0x4 PUSH2 0x3E7 JUMP JUMPDEST PUSH2 0x245 JUMP JUMPDEST PUSH1 0x40 MLOAD PUSH2 0x4E SWAP2 SWAP1 PUSH2 0x6FC JUMP JUMPDEST PUSH1 0x60 PUSH1 0x0 PUSH2 0x91 DUP7 PUSH2 0x260 JUMP JUMPDEST SWAP1 POP PUSH1 0x0 CALLDATALOAD PUSH1 0x1 PUSH1 0x1 PUSH1 0xE0 SHL SUB NOT SWAP1 DUP2 AND SWAP1 DUP3 AND EQ ISZERO PUSH2 0xCC JUMPI PUSH1 0x40 MLOAD PUSH3 0x461BCD PUSH1 0xE5 SHL DUP2 MSTORE PUSH1 0x4 ADD PUSH2 0xC3 SWAP1 PUSH2 0x633 JUMP JUMPDEST PUSH1 0x40 MLOAD DUP1 SWAP2 SUB SWAP1 REVERT JUMPDEST PUSH1 0x40 DUP1 MLOAD PUSH1 0x60 DUP2 ADD DUP3 MSTORE PUSH1 0x1 PUSH1 0x1 PUSH1 0xA0 SHL SUB DUP10 AND PUSH1 0x0 DUP2 DUP2 MSTORE PUSH1 0x1 PUSH1 0x20 SWAP1 DUP2 MSTORE SWAP1 DUP5 SWAP1 KECCAK256 SLOAD DUP4 MSTORE DUP3 ADD MSTORE SWAP1 DUP2 ADD DUP8 SWAP1 MSTORE PUSH2 0x109 DUP9 DUP3 DUP9 DUP9 DUP9 PUSH2 0x280 JUMP JUMPDEST PUSH2 0x125 JUMPI PUSH1 0x40 MLOAD PUSH3 0x461BCD PUSH1 0xE5 SHL DUP2 MSTORE PUSH1 0x4 ADD PUSH2 0xC3 SWAP1 PUSH2 0x6BB JUMP JUMPDEST PUSH1 0x1 PUSH1 0x1 PUSH1 0xA0 SHL SUB DUP9 AND PUSH1 0x0 SWAP1 DUP2 MSTORE PUSH1 0x1 PUSH1 0x20 DUP2 SWAP1 MSTORE PUSH1 0x40 SWAP1 SWAP2 KECCAK256 SLOAD PUSH2 0x14A SWAP2 PUSH2 0x32C JUMP JUMPDEST PUSH1 0x1 PUSH1 0x1 PUSH1 0xA0 SHL SUB DUP10 AND PUSH1 0x0 SWAP1 DUP2 MSTORE PUSH1 0x1 PUSH1 0x20 SWAP1 DUP2 MSTORE PUSH1 0x40 DUP1 DUP4 KECCAK256 SWAP4 SWAP1 SWAP4 SSTORE SWAP2 MLOAD SWAP1 SWAP2 DUP3 SWAP2 ADDRESS SWAP2 PUSH2 0x17F SWAP2 DUP13 SWAP2 DUP15 SWAP2 ADD PUSH2 0x520 JUMP JUMPDEST PUSH1 0x40 DUP1 MLOAD PUSH1 0x1F NOT DUP2 DUP5 SUB ADD DUP2 MSTORE SWAP1 DUP3 SWAP1 MSTORE PUSH2 0x199 SWAP2 PUSH2 0x504 JUMP JUMPDEST PUSH1 0x0 PUSH1 0x40 MLOAD DUP1 DUP4 SUB DUP2 PUSH1 0x0 DUP7 GAS CALL SWAP2 POP POP RETURNDATASIZE DUP1 PUSH1 0x0 DUP2 EQ PUSH2 0x1D6 JUMPI PUSH1 0x40 MLOAD SWAP2 POP PUSH1 0x1F NOT PUSH1 0x3F RETURNDATASIZE ADD AND DUP3 ADD PUSH1 0x40 MSTORE RETURNDATASIZE DUP3 MSTORE RETURNDATASIZE PUSH1 0x0 PUSH1 0x20 DUP5 ADD RETURNDATACOPY PUSH2 0x1DB JUMP JUMPDEST PUSH1 0x60 SWAP2 POP JUMPDEST POP SWAP2 POP SWAP2 POP DUP2 PUSH2 0x1FD JUMPI PUSH1 0x40 MLOAD PUSH3 0x461BCD PUSH1 0xE5 SHL DUP2 MSTORE PUSH1 0x4 ADD PUSH2 0xC3 SWAP1 PUSH2 0x5FC JUMP JUMPDEST PUSH32 0x5845892132946850460BFF5A0083F71031BC5BF9AADCD40F1DE79423EAC9B10B DUP11 CALLER DUP12 PUSH1 0x40 MLOAD PUSH2 0x230 SWAP4 SWAP3 SWAP2 SWAP1 PUSH2 0x572 JUMP JUMPDEST PUSH1 0x40 MLOAD DUP1 SWAP2 SUB SWAP1 LOG1 SWAP10 SWAP9 POP POP POP POP POP POP POP POP POP JUMP JUMPDEST PUSH1 0x1 PUSH1 0x1 PUSH1 0xA0 SHL SUB AND PUSH1 0x0 SWAP1 DUP2 MSTORE PUSH1 0x1 PUSH1 0x20 MSTORE PUSH1 0x40 SWAP1 KECCAK256 SLOAD SWAP1 JUMP JUMPDEST PUSH1 0x0 DUP2 MLOAD PUSH1 0x0 EQ ISZERO PUSH2 0x274 JUMPI POP PUSH1 0x0 PUSH2 0x27B JUMP JUMPDEST POP PUSH1 0x20 DUP2 ADD MLOAD JUMPDEST SWAP2 SWAP1 POP JUMP JUMPDEST PUSH1 0x0 DUP1 PUSH1 0x1 PUSH2 0x296 PUSH2 0x291 DUP9 PUSH2 0x33F JUMP JUMPDEST PUSH2 0x39D JUMP JUMPDEST DUP5 DUP8 DUP8 PUSH1 0x40 MLOAD PUSH1 0x0 DUP2 MSTORE PUSH1 0x20 ADD PUSH1 0x40 MSTORE PUSH1 0x40 MLOAD PUSH2 0x2B6 SWAP5 SWAP4 SWAP3 SWAP2 SWAP1 PUSH2 0x5CB JUMP JUMPDEST PUSH1 0x20 PUSH1 0x40 MLOAD PUSH1 0x20 DUP2 SUB SWAP1 DUP1 DUP5 SUB SWAP1 DUP6 GAS STATICCALL ISZERO DUP1 ISZERO PUSH2 0x2D8 JUMPI RETURNDATASIZE PUSH1 0x0 DUP1 RETURNDATACOPY RETURNDATASIZE PUSH1 0x0 REVERT JUMPDEST POP POP PUSH1 0x40 MLOAD PUSH1 0x1F NOT ADD MLOAD SWAP2 POP POP PUSH1 0x1 PUSH1 0x1 PUSH1 0xA0 SHL SUB DUP2 AND PUSH2 0x30B JUMPI PUSH1 0x40 MLOAD PUSH3 0x461BCD PUSH1 0xE5 SHL DUP2 MSTORE PUSH1 0x4 ADD PUSH2 0xC3 SWAP1 PUSH2 0x690 JUMP JUMPDEST DUP7 PUSH1 0x1 PUSH1 0x1 PUSH1 0xA0 SHL SUB AND DUP2 PUSH1 0x1 PUSH1 0x1 PUSH1 0xA0 SHL SUB AND EQ SWAP2 POP POP SWAP6 SWAP5 POP POP POP POP POP JUMP JUMPDEST PUSH1 0x0 PUSH2 0x338 DUP3 DUP5 PUSH2 0x705 JUMP JUMPDEST SWAP4 SWAP3 POP POP POP JUMP JUMPDEST PUSH1 0x0 PUSH1 0x40 MLOAD DUP1 PUSH1 0x80 ADD PUSH1 0x40 MSTORE DUP1 PUSH1 0x43 DUP2 MSTORE PUSH1 0x20 ADD PUSH2 0x770 PUSH1 0x43 SWAP2 CODECOPY DUP1 MLOAD PUSH1 0x20 SWAP2 DUP3 ADD KECCAK256 DUP4 MLOAD DUP5 DUP4 ADD MLOAD PUSH1 0x40 DUP1 DUP8 ADD MLOAD DUP1 MLOAD SWAP1 DUP7 ADD KECCAK256 SWAP1 MLOAD PUSH2 0x380 SWAP6 ADD PUSH2 0x5A7 JUMP JUMPDEST PUSH1 0x40 MLOAD PUSH1 0x20 DUP2 DUP4 SUB SUB DUP2 MSTORE SWAP1 PUSH1 0x40 MSTORE DUP1 MLOAD SWAP1 PUSH1 0x20 ADD KECCAK256 SWAP1 POP SWAP2 SWAP1 POP JUMP JUMPDEST PUSH1 0x0 PUSH2 0x3A7 PUSH2 0x3B9 JUMP JUMPDEST DUP3 PUSH1 0x40 MLOAD PUSH1 0x20 ADD PUSH2 0x380 SWAP3 SWAP2 SWAP1 PUSH2 0x557 JUMP JUMPDEST PUSH1 0x0 SLOAD SWAP1 JUMP JUMPDEST DUP1 CALLDATALOAD PUSH1 0x1 PUSH1 0x1 PUSH1 0xA0 SHL SUB DUP2 AND DUP2 EQ PUSH2 0x27B JUMPI PUSH1 0x0 DUP1 REVERT JUMPDEST DUP1 CALLDATALOAD PUSH1 0xFF DUP2 AND DUP2 EQ PUSH2 0x27B JUMPI PUSH1 0x0 DUP1 REVERT JUMPDEST PUSH1 0x0 PUSH1 0x20 DUP3 DUP5 SUB SLT ISZERO PUSH2 0x3F8 JUMPI DUP1 DUP2 REVERT JUMPDEST PUSH2 0x338 DUP3 PUSH2 0x3BF JUMP JUMPDEST PUSH1 0x0 DUP1 PUSH1 0x0 DUP1 PUSH1 0x0 PUSH1 0xA0 DUP7 DUP9 SUB SLT ISZERO PUSH2 0x418 JUMPI DUP1 DUP2 REVERT JUMPDEST PUSH2 0x421 DUP7 PUSH2 0x3BF JUMP JUMPDEST SWAP5 POP PUSH1 0x20 DUP1 DUP8 ADD CALLDATALOAD PUSH8 0xFFFFFFFFFFFFFFFF DUP1 DUP3 GT ISZERO PUSH2 0x43E JUMPI DUP4 DUP5 REVERT JUMPDEST DUP2 DUP10 ADD SWAP2 POP DUP10 PUSH1 0x1F DUP4 ADD SLT PUSH2 0x451 JUMPI DUP4 DUP5 REVERT JUMPDEST DUP2 CALLDATALOAD DUP2 DUP2 GT ISZERO PUSH2 0x463 JUMPI PUSH2 0x463 PUSH2 0x759 JUMP JUMPDEST PUSH1 0x40 MLOAD PUSH1 0x1F DUP3 ADD PUSH1 0x1F NOT AND DUP2 ADD DUP6 ADD DUP4 DUP2 GT DUP3 DUP3 LT OR ISZERO PUSH2 0x486 JUMPI PUSH2 0x486 PUSH2 0x759 JUMP JUMPDEST PUSH1 0x40 MSTORE DUP2 DUP2 MSTORE DUP4 DUP3 ADD DUP6 ADD DUP13 LT ISZERO PUSH2 0x49C JUMPI DUP6 DUP7 REVERT JUMPDEST DUP2 DUP6 DUP6 ADD DUP7 DUP4 ADD CALLDATACOPY SWAP1 DUP2 ADD SWAP1 SWAP4 ADD DUP5 SWAP1 MSTORE POP SWAP1 SWAP5 POP POP PUSH1 0x40 DUP7 ADD CALLDATALOAD SWAP3 POP PUSH1 0x60 DUP7 ADD CALLDATALOAD SWAP2 POP PUSH2 0x4CC PUSH1 0x80 DUP8 ADD PUSH2 0x3D6 JUMP JUMPDEST SWAP1 POP SWAP3 SWAP6 POP SWAP3 SWAP6 SWAP1 SWAP4 POP JUMP JUMPDEST PUSH1 0x0 DUP2 MLOAD DUP1 DUP5 MSTORE PUSH2 0x4F0 DUP2 PUSH1 0x20 DUP7 ADD PUSH1 0x20 DUP7 ADD PUSH2 0x729 JUMP JUMPDEST PUSH1 0x1F ADD PUSH1 0x1F NOT AND SWAP3 SWAP1 SWAP3 ADD PUSH1 0x20 ADD SWAP3 SWAP2 POP POP JUMP JUMPDEST PUSH1 0x0 DUP3 MLOAD PUSH2 0x516 DUP2 DUP5 PUSH1 0x20 DUP8 ADD PUSH2 0x729 JUMP JUMPDEST SWAP2 SWAP1 SWAP2 ADD SWAP3 SWAP2 POP POP JUMP JUMPDEST PUSH1 0x0 DUP4 MLOAD PUSH2 0x532 DUP2 DUP5 PUSH1 0x20 DUP9 ADD PUSH2 0x729 JUMP JUMPDEST PUSH1 0x60 SWAP4 SWAP1 SWAP4 SHL PUSH12 0xFFFFFFFFFFFFFFFFFFFFFFFF NOT AND SWAP2 SWAP1 SWAP3 ADD SWAP1 DUP2 MSTORE PUSH1 0x14 ADD SWAP3 SWAP2 POP POP JUMP JUMPDEST PUSH2 0x1901 PUSH1 0xF0 SHL DUP2 MSTORE PUSH1 0x2 DUP2 ADD SWAP3 SWAP1 SWAP3 MSTORE PUSH1 0x22 DUP3 ADD MSTORE PUSH1 0x42 ADD SWAP1 JUMP JUMPDEST PUSH1 0x1 PUSH1 0x1 PUSH1 0xA0 SHL SUB DUP5 DUP2 AND DUP3 MSTORE DUP4 AND PUSH1 0x20 DUP3 ADD MSTORE PUSH1 0x60 PUSH1 0x40 DUP3 ADD DUP2 SWAP1 MSTORE PUSH1 0x0 SWAP1 PUSH2 0x59E SWAP1 DUP4 ADD DUP5 PUSH2 0x4D8 JUMP JUMPDEST SWAP6 SWAP5 POP POP POP POP POP JUMP JUMPDEST SWAP4 DUP5 MSTORE PUSH1 0x20 DUP5 ADD SWAP3 SWAP1 SWAP3 MSTORE PUSH1 0x1 PUSH1 0x1 PUSH1 0xA0 SHL SUB AND PUSH1 0x40 DUP4 ADD MSTORE PUSH1 0x60 DUP3 ADD MSTORE PUSH1 0x80 ADD SWAP1 JUMP JUMPDEST SWAP4 DUP5 MSTORE PUSH1 0xFF SWAP3 SWAP1 SWAP3 AND PUSH1 0x20 DUP5 ADD MSTORE PUSH1 0x40 DUP4 ADD MSTORE PUSH1 0x60 DUP3 ADD MSTORE PUSH1 0x80 ADD SWAP1 JUMP JUMPDEST PUSH1 0x0 PUSH1 0x20 DUP3 MSTORE PUSH2 0x338 PUSH1 0x20 DUP4 ADD DUP5 PUSH2 0x4D8 JUMP JUMPDEST PUSH1 0x20 DUP1 DUP3 MSTORE PUSH1 0x1C SWAP1 DUP3 ADD MSTORE PUSH32 0x46756E6374696F6E2063616C6C206E6F74207375636365737366756C00000000 PUSH1 0x40 DUP3 ADD MSTORE PUSH1 0x60 ADD SWAP1 JUMP JUMPDEST PUSH1 0x20 DUP1 DUP3 MSTORE PUSH1 0x3D SWAP1 DUP3 ADD MSTORE PUSH32 0x66756E6374696F6E5369676E61747572652063616E206E6F74206265206F6620 PUSH1 0x40 DUP3 ADD MSTORE PUSH32 0x657865637574654D6574615472616E73616374696F6E206D6574686F64000000 PUSH1 0x60 DUP3 ADD MSTORE PUSH1 0x80 ADD SWAP1 JUMP JUMPDEST PUSH1 0x20 DUP1 DUP3 MSTORE PUSH1 0x11 SWAP1 DUP3 ADD MSTORE PUSH17 0x496E76616C6964207369676E6174757265 PUSH1 0x78 SHL PUSH1 0x40 DUP3 ADD MSTORE PUSH1 0x60 ADD SWAP1 JUMP JUMPDEST PUSH1 0x20 DUP1 DUP3 MSTORE PUSH1 0x21 SWAP1 DUP3 ADD MSTORE PUSH32 0x5369676E657220616E64207369676E617475726520646F206E6F74206D617463 PUSH1 0x40 DUP3 ADD MSTORE PUSH1 0xD PUSH1 0xFB SHL PUSH1 0x60 DUP3 ADD MSTORE PUSH1 0x80 ADD SWAP1 JUMP JUMPDEST SWAP1 DUP2 MSTORE PUSH1 0x20 ADD SWAP1 JUMP JUMPDEST PUSH1 0x0 DUP3 NOT DUP3 GT ISZERO PUSH2 0x724 JUMPI PUSH4 0x4E487B71 PUSH1 0xE0 SHL DUP2 MSTORE PUSH1 0x11 PUSH1 0x4 MSTORE PUSH1 0x24 DUP2 REVERT JUMPDEST POP ADD SWAP1 JUMP JUMPDEST PUSH1 0x0 JUMPDEST DUP4 DUP2 LT ISZERO PUSH2 0x744 JUMPI DUP2 DUP2 ADD MLOAD DUP4 DUP3 ADD MSTORE PUSH1 0x20 ADD PUSH2 0x72C JUMP JUMPDEST DUP4 DUP2 GT ISZERO PUSH2 0x753 JUMPI PUSH1 0x0 DUP5 DUP5 ADD MSTORE JUMPDEST POP POP POP POP JUMP JUMPDEST PUSH4 0x4E487B71 PUSH1 0xE0 SHL PUSH1 0x0 MSTORE PUSH1 0x41 PUSH1 0x4 MSTORE PUSH1 0x24 PUSH1 0x0 REVERT INVALID 0x4D PUSH6 0x74615472616E PUSH20 0x616374696F6E2875696E74323536206E6F6E6365 0x2C PUSH2 0x6464 PUSH19 0x6573732066726F6D2C62797465732066756E63 PUSH21 0x696F6E5369676E617475726529A264697066735822 SLT KECCAK256 0x21 0xB6 PUSH16 0x703CE773D51452A6DA0CCC7E555F53C8 MSTORE8 SAR 0xEC DUP16 CODECOPY 0xC8 CREATE 0xC3 DUP6 PUSH4 0x7BA3AD64 PUSH20 0x6F6C63430008000033454950373132446F6D6169 PUSH15 0x28737472696E67206E616D652C7374 PUSH19 0x696E672076657273696F6E2C61646472657373 KECCAK256 PUSH23 0x6572696679696E67436F6E74726163742C627974657333 ORIGIN KECCAK256 PUSH20 0x616C742900000000000000000000000000000000 "
        },
        "methodIdentifiers": {
          "executeMetaTransaction(address,bytes,bytes32,bytes32,uint8)": "0c53c51c",
          "getNonce(address)": "2d0335ab"
        }
      }
    }
  }
}