{
  "_format": "hh-sol-artifact-1",
  "contractName": "Agreement",
  "sourceName": "contracts/Agreement.sol",
  "abi": [
    {
      "inputs": [
        {
          "internalType": "address payable",
          "name": "_buyerAddress",
          "type": "address"
        },
        {
          "internalType": "address payable",
          "name": "_sellerAddress",
          "type": "address"
        },
        {
          "internalType": "uint256",
          "name": "_price",
          "type": "uint256"
        },
        {
          "internalType": "uint256",
          "name": "_percent",
          "type": "uint256"
        },
        {
          "internalType": "uint256",
          "name": "_sPer",
          "type": "uint256"
        },
        {
          "internalType": "string",
          "name": "_titleA",
          "type": "string"
        },
        {
          "internalType": "string",
          "name": "_descriptionA",
          "type": "string"
        }
      ],
      "stateMutability": "nonpayable",
      "type": "constructor"
    },
    {
      "anonymous": false,
      "inputs": [
        {
          "indexed": true,
          "internalType": "address",
          "name": "buyer",
          "type": "address"
        },
        {
          "indexed": true,
          "internalType": "address",
          "name": "seller",
          "type": "address"
        },
        {
          "components": [
            {
              "internalType": "address",
              "name": "buyer",
              "type": "address"
            },
            {
              "internalType": "address",
              "name": "seller",
              "type": "address"
            },
            {
              "internalType": "uint256",
              "name": "salePrice",
              "type": "uint256"
            },
            {
              "internalType": "uint256",
              "name": "statePercent",
              "type": "uint256"
            },
            {
              "internalType": "uint256",
              "name": "sellerPercent",
              "type": "uint256"
            },
            {
              "internalType": "string",
              "name": "title",
              "type": "string"
            },
            {
              "internalType": "string",
              "name": "description",
              "type": "string"
            },
            {
              "internalType": "bool",
              "name": "buyerStake",
              "type": "bool"
            },
            {
              "internalType": "bool",
              "name": "sellerStake",
              "type": "bool"
            },
            {
              "internalType": "bool",
              "name": "buyerCancel",
              "type": "bool"
            },
            {
              "internalType": "bool",
              "name": "sellerCancel",
              "type": "bool"
            },
            {
              "internalType": "bool",
              "name": "active",
              "type": "bool"
            },
            {
              "internalType": "bool",
              "name": "cancelled",
              "type": "bool"
            },
            {
              "internalType": "address",
              "name": "agreAddress",
              "type": "address"
            }
          ],
          "indexed": false,
          "internalType": "struct Agreement.ContractStatus",
          "name": "state",
          "type": "tuple"
        }
      ],
      "name": "AgreementStateChanged",
      "type": "event"
    },
    {
      "inputs": [],
      "name": "agreementAddress",
      "outputs": [
        {
          "internalType": "address",
          "name": "",
          "type": "address"
        }
      ],
      "stateMutability": "view",
      "type": "function"
    },
    {
      "inputs": [],
      "name": "cancel",
      "outputs": [],
      "stateMutability": "payable",
      "type": "function"
    },
    {
      "inputs": [],
      "name": "confirm",
      "outputs": [],
      "stateMutability": "payable",
      "type": "function"
    },
    {
      "inputs": [],
      "name": "getStatus",
      "outputs": [
        {
          "components": [
            {
              "internalType": "address",
              "name": "buyer",
              "type": "address"
            },
            {
              "internalType": "address",
              "name": "seller",
              "type": "address"
            },
            {
              "internalType": "uint256",
              "name": "salePrice",
              "type": "uint256"
            },
            {
              "internalType": "uint256",
              "name": "statePercent",
              "type": "uint256"
            },
            {
              "internalType": "uint256",
              "name": "sellerPercent",
              "type": "uint256"
            },
            {
              "internalType": "string",
              "name": "title",
              "type": "string"
            },
            {
              "internalType": "string",
              "name": "description",
              "type": "string"
            },
            {
              "internalType": "bool",
              "name": "buyerStake",
              "type": "bool"
            },
            {
              "internalType": "bool",
              "name": "sellerStake",
              "type": "bool"
            },
            {
              "internalType": "bool",
              "name": "buyerCancel",
              "type": "bool"
            },
            {
              "internalType": "bool",
              "name": "sellerCancel",
              "type": "bool"
            },
            {
              "internalType": "bool",
              "name": "active",
              "type": "bool"
            },
            {
              "internalType": "bool",
              "name": "cancelled",
              "type": "bool"
            },
            {
              "internalType": "address",
              "name": "agreAddress",
              "type": "address"
            }
          ],
          "internalType": "struct Agreement.ContractStatus",
          "name": "",
          "type": "tuple"
        }
      ],
      "stateMutability": "view",
      "type": "function"
    },
    {
      "inputs": [],
      "name": "revokeCancellation",
      "outputs": [],
      "stateMutability": "nonpayable",
      "type": "function"
    },
    {
      "inputs": [],
      "name": "revokeStake",
      "outputs": [],
      "stateMutability": "payable",
      "type": "function"
    },
    {
      "inputs": [],
      "name": "stake",
      "outputs": [],
      "stateMutability": "payable",
      "type": "function"
    }
  ],
  "bytecode": "0x60806040523480156200001157600080fd5b50604051620019be380380620019be833981016040819052620000349162000335565b856001600160a01b0316876001600160a01b03161415620000725760405162461bcd60e51b81526004016200006990620003e0565b60405180910390fd5b600080546001600160a01b03808a166001600160a01b03199283161790925560018054928916929091169190911790556002859055600384905560048390558151620000c6906005906020850190620001c7565b508051620000dc906006906020840190620001c7565b5062000115606462000101600354600254620001a460201b62000e531790919060201c565b620001b960201b62000e661790919060201c565b600080546001600160a01b0316815260076020908152604090912091909155600454600254620001579260649262000101929162000e53620001a4821b17901c565b600180546001600160a01b0316600090815260076020526040902091909155600a805460ff191690911762010000600160b01b03191630620100000217905550620004d295505050505050565b6000620001b2828462000453565b9392505050565b6000620001b2828462000432565b828054620001d5906200047f565b90600052602060002090601f016020900481019282620001f9576000855562000244565b82601f106200021457805160ff191683800117855562000244565b8280016001018555821562000244579182015b828111156200024457825182559160200191906001019062000227565b506200025292915062000256565b5090565b5b8082111562000252576000815560010162000257565b80516001600160a01b03811681146200028557600080fd5b919050565b600082601f8301126200029b578081fd5b81516001600160401b0380821115620002b857620002b8620004bc565b6040516020601f8401601f1916820181018381118382101715620002e057620002e0620004bc565b6040528382528584018101871015620002f7578485fd5b8492505b838310156200031a5785830181015182840182015291820191620002fb565b838311156200032b57848185840101525b5095945050505050565b600080600080600080600060e0888a03121562000350578283fd5b6200035b886200026d565b96506200036b602089016200026d565b604089015160608a015160808b015160a08c0151939950919750955093506001600160401b03808211156200039e578384fd5b620003ac8b838c016200028a565b935060c08a0151915080821115620003c2578283fd5b50620003d18a828b016200028a565b91505092959891949750929550565b60208082526032908201527f4275796572204164647265737320616e642073656c6c657220416464726573736040820152712063616e2774206265207468652073616d6560701b606082015260800190565b6000826200044e57634e487b7160e01b81526012600452602481fd5b500490565b60008160001904831182151516156200047a57634e487b7160e01b81526011600452602481fd5b500290565b6002810460018216806200049457607f821691505b60208210811415620004b657634e487b7160e01b600052602260045260246000fd5b50919050565b634e487b7160e01b600052604160045260246000fd5b6114dc80620004e26000396000f3fe6080604052600436106100705760003560e01c80634e69d5601161004e5780634e69d560146100b25780634f4b5e66146100d45780637022b58e146100e9578063ea8a1af0146100f157610070565b80632a1440d6146100755780632a8732611461007f5780633a4b66f1146100aa575b600080fd5b61007d6100f9565b005b34801561008b57600080fd5b50610094610309565b6040516100a19190610f46565b60405180910390f35b61007d61031e565b3480156100be57600080fd5b506100c76104a3565b6040516100a191906112b0565b3480156100e057600080fd5b5061007d6106a5565b61007d6107e0565b61007d610a8a565b6000546001600160a01b031633148061011c57506001546001600160a01b031633145b6101415760405162461bcd60e51b8152600401610138906110fe565b60405180910390fd5b600a5460ff166101635760405162461bcd60e51b815260040161013890611043565b600080546001600160a01b0316815260086020526040812054819060ff1680156101a757506001546001600160a01b031660009081526008602052604090205460ff165b9050811515811515146101cc5760405162461bcd60e51b81526004016101389061107a565b33600090815260086020526040902054479060ff166101fd5760405162461bcd60e51b815260040161013890610f5a565b3360009081526007602052604090205481101561022c5760405162461bcd60e51b815260040161013890610f83565b3360008181526007602052604080822054905191929161024b90610f43565b60006040518083038185875af1925050503d8060008114610288576040519150601f19603f3d011682016040523d82523d6000602084013e61028d565b606091505b50509050806102ae5760405162461bcd60e51b815260040161013890611208565b336000908152600860205260408120805460ff1916905560015490546001600160a01b0391821691166000805160206114878339815191526102ee6104a3565b6040516102fb91906112b0565b60405180910390a350505050565b600a546201000090046001600160a01b031681565b6000546001600160a01b031633148061034157506001546001600160a01b031633145b61035d5760405162461bcd60e51b8152600401610138906110fe565b600a5460ff1661037f5760405162461bcd60e51b815260040161013890611043565b600080546001600160a01b0316815260086020526040812054819060ff1680156103c357506001546001600160a01b031660009081526008602052604090205460ff165b9050811515811515146103e85760405162461bcd60e51b81526004016101389061107a565b3360009081526008602052604090205460ff16156104185760405162461bcd60e51b8152600401610138906110c7565b3360009081526007602052604090205434146104465760405162461bcd60e51b815260040161013890610fc5565b336000908152600860205260408120805460ff191660019081179091555490546001600160a01b03918216911660008051602061148783398151915261048a6104a3565b60405161049791906112b0565b60405180910390a35050565b6104ab610e72565b604080516101c0810182526000546001600160a01b03908116825260015416602082015260025491810191909152600354606082015260045460808201526005805460a0830191906104fc9061141a565b80601f01602080910402602001604051908101604052809291908181526020018280546105289061141a565b80156105755780601f1061054a57610100808354040283529160200191610575565b820191906000526020600020905b81548152906001019060200180831161055857829003601f168201915b505050505081526020016006805461058c9061141a565b80601f01602080910402602001604051908101604052809291908181526020018280546105b89061141a565b80156106055780601f106105da57610100808354040283529160200191610605565b820191906000526020600020905b8154815290600101906020018083116105e857829003601f168201915b5050509183525050600080546001600160a01b039081168083526008602081815260408086205460ff908116151583890152600154861680885293835281872054811615158289015293865260098083528187205485161515606089015292865291905290922054821615156080840152600a54808316151560a08501526101008104909216151560c0840152620100009091041660e090910152905090565b6000546001600160a01b03163314806106c857506001546001600160a01b031633145b6106e45760405162461bcd60e51b8152600401610138906110fe565b600a5460ff166107065760405162461bcd60e51b815260040161013890611043565b600080546001600160a01b03168152600860205260408120546001919060ff16801561074c57506001546001600160a01b031660009081526008602052604090205460ff165b9050811515811515146107715760405162461bcd60e51b81526004016101389061107a565b3360009081526009602052604090205460ff166107a05760405162461bcd60e51b815260040161013890611269565b336000908152600960205260408120805460ff1916905560015490546001600160a01b03918216911660008051602061148783398151915261048a6104a3565b6000546001600160a01b0316331461080a5760405162461bcd60e51b815260040161013890611232565b600a5460ff1661082c5760405162461bcd60e51b815260040161013890611043565b600080546001600160a01b03168152600860205260408120546001919060ff16801561087257506001546001600160a01b031660009081526008602052604090205460ff165b9050811515811515146108975760405162461bcd60e51b81526004016101389061107a565b600080546001600160a01b031681526009602052604090205460ff161580156108db57506001546001600160a01b031660009081526009602052604090205460ff16155b6108f75760405162461bcd60e51b815260040161013890611160565b6002544710156109195760405162461bcd60e51b8152600401610138906111de565b600080546001546001600160a01b0390811683526007602052604080842054905191909216919061094990610f43565b60006040518083038185875af1925050503d8060008114610986576040519150601f19603f3d011682016040523d82523d6000602084013e61098b565b606091505b5050600154600080546001600160a01b0390811682526007602052604080832054905194955091939216916109bf90610f43565b60006040518083038185875af1925050503d80600081146109fc576040519150601f19603f3d011682016040523d82523d6000602084013e610a01565b606091505b50509050818015610a0f5750805b610a2b5760405162461bcd60e51b8152600401610138906111b1565b600080546001600160a01b03908116825260086020526040808320805460ff199081169091556001805484168552918420805482169055600a8054909116905554915491811691166000805160206114878339815191526102ee6104a3565b6000546001600160a01b0316331480610aad57506001546001600160a01b031633145b610ac95760405162461bcd60e51b8152600401610138906110fe565b600a5460ff16610aeb5760405162461bcd60e51b815260040161013890611043565b600080546001600160a01b03168152600860205260408120546001919060ff168015610b3157506001546001600160a01b031660009081526008602052604090205460ff165b905081151581151514610b565760405162461bcd60e51b81526004016101389061107a565b3360009081526009602052604090205460ff1615610b865760405162461bcd60e51b815260040161013890610ffc565b33600090815260096020526040808220805460ff1916600117905581546001600160a01b0316825290205460ff168015610bda57506001546001600160a01b031660009081526009602052604090205460ff165b15610e295733600090815260076020526040902054600254610bfc9190611403565b471015610c1b5760405162461bcd60e51b815260040161013890611135565b600080546001600160a01b031680825260076020526040808320549051610c4190610f43565b60006040518083038185875af1925050503d8060008114610c7e576040519150601f19603f3d011682016040523d82523d6000602084013e610c83565b606091505b50506001546001600160a01b03166000818152600760205260408082205490519394509092610cb190610f43565b60006040518083038185875af1925050503d8060008114610cee576040519150601f19603f3d011682016040523d82523d6000602084013e610cf3565b606091505b50509050818015610d015750805b610d1d5760405162461bcd60e51b8152600401610138906111b1565b60408051808201909152600080546001600160a01b0390811683526001541660208301525b6002811015610e1557600060096000848460028110610d7157634e487b7160e01b600052603260045260246000fd5b60200201516001600160a01b03166001600160a01b0316815260200190815260200160002060006101000a81548160ff021916908315150217905550600060086000848460028110610dd357634e487b7160e01b600052603260045260246000fd5b602090810291909101516001600160a01b03168252810191909152604001600020805460ff191691151591909117905580610e0d81611455565b915050610d42565b5050600a805461ffff191661010017905550505b6001546000546001600160a01b03918216911660008051602061148783398151915261048a6104a3565b6000610e5f82846113e4565b9392505050565b6000610e5f82846113c4565b604080516101c08101825260008082526020820181905291810182905260608082018390526080820183905260a0820181905260c082015260e08101829052610100810182905261012081018290526101408101829052610160810182905261018081018290526101a081019190915290565b6001600160a01b03169052565b15159052565b60008151808452815b81811015610f1d57602081850181015186830182015201610f01565b81811115610f2e5782602083870101525b50601f01601f19169290920160200192915050565b90565b6001600160a01b0391909116815260200190565b6020808252600f908201526e27379039ba30b5b2b2103cb2ba109760891b604082015260600190565b60208082526022908201527f4e6f7420656e6f756768204d61746963206c65667420746f20776974686472616040820152613b9760f11b606082015260800190565b6020808252601e908201527f496e636f7272656374207374616b696e6720616d6f756e742073656e742e0000604082015260600190565b60208082526027908201527f20416c72656164792069737375656420612063616e63656c6c6174696f6e207260408201526632b8bab2b9ba1760c91b606082015260800190565b60208082526017908201527f41677265656d656e74206973206e6f7420616374697665000000000000000000604082015260600190565b6020808252602d908201527f41677265656d656e742073746174757320646f6573206e6f74207065726d697460408201526c103a3434b99030b1ba34b7b71760991b606082015260800190565b60208082526019908201527f416c7265616479207374616b652074686520616d6f756e742e00000000000000604082015260600190565b6020808252601d908201527f4f6e6c7920616c6c6f772061677265656d656e74207061727469657321000000604082015260600190565b6020808252601190820152702737ba1032b737bab3b410102722a7a71760791b604082015260600190565b60208082526031908201527f43616e6e6f7420636f6e6669726d206173206174206c65617374206f6e6520206040820152707265717565737465642063616e63656c2160781b606082015260800190565b602080825260139082015272151c985b9cd9995c881a185cc819985a5b1959606a1b604082015260600190565b60208082526010908201526f4e6f7420656e6f756768204d6174696360801b604082015260600190565b60208082526010908201526f2a3930b739b332b9103330b4b632b21760811b604082015260600190565b6020808252601a908201527f4f6e6c7920616c6c6f772061677265656d656e74206275796572000000000000604082015260600190565b60208082526027908201527f446f65736e2774206861766520612063616e63656c207265717565737420746f604082015266207265766f6b6560c81b606082015260800190565b6000602082526112c4602083018451610ee5565b60208301516112d66040840182610ee5565b506040830151606083015260608301516080830152608083015160a083015260a08301516101c08060c08501526113116101e0850183610ef8565b915060c0850151601f198584030160e086015261132e8382610ef8565b92505060e085015161010061134581870183610ef2565b860151905061012061135986820183610ef2565b860151905061014061136d86820183610ef2565b860151905061016061138186820183610ef2565b860151905061018061139586820183610ef2565b86015190506101a06113a986820183610ef2565b86015190506113ba85830182610ee5565b5090949350505050565b6000826113df57634e487b7160e01b81526012600452602481fd5b500490565b60008160001904831182151516156113fe576113fe611470565b500290565b60008282101561141557611415611470565b500390565b60028104600182168061142e57607f821691505b6020821081141561144f57634e487b7160e01b600052602260045260246000fd5b50919050565b600060001982141561146957611469611470565b5060010190565b634e487b7160e01b600052601160045260246000fdfe7e60eee2bb7fb00a7c2c55d3e7697bb6f1f6075e558a99a1677bd898b2d2f100a2646970667358221220d06514885c7a278d876e2901a7f6a53df29bab7ed148949e8b447ac080f329fa64736f6c63430008000033",
  "linkReferences": {},
  "deployedLinkReferences": {}
}