{
  "contractName": "Agreement",
  "abi": [
    {
      "inputs": [
        {
          "internalType": "address payable",
          "name": "_buyerAddress",
          "type": "address"
        },
        {
          "internalType": "address payable",
          "name": "_sellerAddress",
          "type": "address"
        },
        {
          "internalType": "uint256",
          "name": "_price",
          "type": "uint256"
        },
        {
          "internalType": "uint256",
          "name": "_percent",
          "type": "uint256"
        },
        {
          "internalType": "uint256",
          "name": "_sPer",
          "type": "uint256"
        },
        {
          "internalType": "string",
          "name": "_titleA",
          "type": "string"
        },
        {
          "internalType": "string",
          "name": "_descriptionA",
          "type": "string"
        }
      ],
      "stateMutability": "nonpayable",
      "type": "constructor"
    },
    {
      "anonymous": false,
      "inputs": [
        {
          "indexed": true,
          "internalType": "address",
          "name": "buyer",
          "type": "address"
        },
        {
          "indexed": true,
          "internalType": "address",
          "name": "seller",
          "type": "address"
        },
        {
          "components": [
            {
              "internalType": "address",
              "name": "buyer",
              "type": "address"
            },
            {
              "internalType": "address",
              "name": "seller",
              "type": "address"
            },
            {
              "internalType": "uint256",
              "name": "salePrice",
              "type": "uint256"
            },
            {
              "internalType": "uint256",
              "name": "statePercent",
              "type": "uint256"
            },
            {
              "internalType": "uint256",
              "name": "sellerPercent",
              "type": "uint256"
            },
            {
              "internalType": "string",
              "name": "title",
              "type": "string"
            },
            {
              "internalType": "string",
              "name": "description",
              "type": "string"
            },
            {
              "internalType": "bool",
              "name": "buyerStake",
              "type": "bool"
            },
            {
              "internalType": "bool",
              "name": "sellerStake",
              "type": "bool"
            },
            {
              "internalType": "bool",
              "name": "buyerCancel",
              "type": "bool"
            },
            {
              "internalType": "bool",
              "name": "sellerCancel",
              "type": "bool"
            },
            {
              "internalType": "bool",
              "name": "active",
              "type": "bool"
            },
            {
              "internalType": "bool",
              "name": "cancelled",
              "type": "bool"
            },
            {
              "internalType": "address",
              "name": "agreAddress",
              "type": "address"
            }
          ],
          "indexed": false,
          "internalType": "struct Agreement.ContractStatus",
          "name": "state",
          "type": "tuple"
        }
      ],
      "name": "AgreementStateChanged",
      "type": "event"
    },
    {
      "inputs": [],
      "name": "agreementAddress",
      "outputs": [
        {
          "internalType": "address",
          "name": "",
          "type": "address"
        }
      ],
      "stateMutability": "view",
      "type": "function"
    },
    {
      "inputs": [],
      "name": "cancel",
      "outputs": [],
      "stateMutability": "payable",
      "type": "function"
    },
    {
      "inputs": [],
      "name": "confirm",
      "outputs": [],
      "stateMutability": "payable",
      "type": "function"
    },
    {
      "inputs": [],
      "name": "getStatus",
      "outputs": [
        {
          "components": [
            {
              "internalType": "address",
              "name": "buyer",
              "type": "address"
            },
            {
              "internalType": "address",
              "name": "seller",
              "type": "address"
            },
            {
              "internalType": "uint256",
              "name": "salePrice",
              "type": "uint256"
            },
            {
              "internalType": "uint256",
              "name": "statePercent",
              "type": "uint256"
            },
            {
              "internalType": "uint256",
              "name": "sellerPercent",
              "type": "uint256"
            },
            {
              "internalType": "string",
              "name": "title",
              "type": "string"
            },
            {
              "internalType": "string",
              "name": "description",
              "type": "string"
            },
            {
              "internalType": "bool",
              "name": "buyerStake",
              "type": "bool"
            },
            {
              "internalType": "bool",
              "name": "sellerStake",
              "type": "bool"
            },
            {
              "internalType": "bool",
              "name": "buyerCancel",
              "type": "bool"
            },
            {
              "internalType": "bool",
              "name": "sellerCancel",
              "type": "bool"
            },
            {
              "internalType": "bool",
              "name": "active",
              "type": "bool"
            },
            {
              "internalType": "bool",
              "name": "cancelled",
              "type": "bool"
            },
            {
              "internalType": "address",
              "name": "agreAddress",
              "type": "address"
            }
          ],
          "internalType": "struct Agreement.ContractStatus",
          "name": "",
          "type": "tuple"
        }
      ],
      "stateMutability": "view",
      "type": "function"
    },
    {
      "inputs": [
        {
          "internalType": "address",
          "name": "forwarder",
          "type": "address"
        }
      ],
      "name": "isTrustedForwarder",
      "outputs": [
        {
          "internalType": "bool",
          "name": "",
          "type": "bool"
        }
      ],
      "stateMutability": "view",
      "type": "function"
    },
    {
      "inputs": [],
      "name": "revokeCancellation",
      "outputs": [],
      "stateMutability": "nonpayable",
      "type": "function"
    },
    {
      "inputs": [],
      "name": "revokeStake",
      "outputs": [],
      "stateMutability": "payable",
      "type": "function"
    },
    {
      "inputs": [],
      "name": "stake",
      "outputs": [],
      "stateMutability": "payable",
      "type": "function"
    }
  ],
  "bytecode": "0x60806040523480156200001157600080fd5b50604051620039ce380380620039ce833981810160405281019062000037919062000630565b8573ffffffffffffffffffffffffffffffffffffffff168773ffffffffffffffffffffffffffffffffffffffff161415620000a9576040517f08c379a0000000000000000000000000000000000000000000000000000000008152600401620000a090620007a8565b60405180910390fd5b866000806101000a81548173ffffffffffffffffffffffffffffffffffffffff021916908373ffffffffffffffffffffffffffffffffffffffff16021790555085600160006101000a81548173ffffffffffffffffffffffffffffffffffffffff021916908373ffffffffffffffffffffffffffffffffffffffff16021790555084600281905550836003819055508260048190555081600590805190602001906200015792919062000343565b5080600690805190602001906200017092919062000343565b50620001a96064620001956003546002546200031360201b620023bf1790919060201c565b6200032b60201b620023d51790919060201c565b600760008060009054906101000a900473ffffffffffffffffffffffffffffffffffffffff1673ffffffffffffffffffffffffffffffffffffffff1673ffffffffffffffffffffffffffffffffffffffff16815260200190815260200160002081905550620002456064620002316004546002546200031360201b620023bf1790919060201c565b6200032b60201b620023d51790919060201c565b60076000600160009054906101000a900473ffffffffffffffffffffffffffffffffffffffff1673ffffffffffffffffffffffffffffffffffffffff1673ffffffffffffffffffffffffffffffffffffffff168152602001908152602001600020819055506001600a60006101000a81548160ff02191690831515021790555030600a60026101000a81548173ffffffffffffffffffffffffffffffffffffffff021916908373ffffffffffffffffffffffffffffffffffffffff1602179055505050505050505062000926565b60008183620003239190620007f9565b905092915050565b600081836200033b919062000889565b905092915050565b8280546200035190620008f0565b90600052602060002090601f016020900481019282620003755760008555620003c1565b82601f106200039057805160ff1916838001178555620003c1565b82800160010185558215620003c1579182015b82811115620003c0578251825591602001919060010190620003a3565b5b509050620003d09190620003d4565b5090565b5b80821115620003ef576000816000905550600101620003d5565b5090565b6000604051905090565b600080fd5b600080fd5b600073ffffffffffffffffffffffffffffffffffffffff82169050919050565b6000620004348262000407565b9050919050565b620004468162000427565b81146200045257600080fd5b50565b60008151905062000466816200043b565b92915050565b6000819050919050565b62000481816200046c565b81146200048d57600080fd5b50565b600081519050620004a18162000476565b92915050565b600080fd5b600080fd5b6000601f19601f8301169050919050565b7f4e487b7100000000000000000000000000000000000000000000000000000000600052604160045260246000fd5b620004fc82620004b1565b810181811067ffffffffffffffff821117156200051e576200051d620004c2565b5b80604052505050565b600062000533620003f3565b9050620005418282620004f1565b919050565b600067ffffffffffffffff821115620005645762000563620004c2565b5b6200056f82620004b1565b9050602081019050919050565b60005b838110156200059c5780820151818401526020810190506200057f565b83811115620005ac576000848401525b50505050565b6000620005c9620005c38462000546565b62000527565b905082815260208101848484011115620005e857620005e7620004ac565b5b620005f58482856200057c565b509392505050565b600082601f830112620006155762000614620004a7565b5b815162000627848260208601620005b2565b91505092915050565b600080600080600080600060e0888a031215620006525762000651620003fd565b5b6000620006628a828b0162000455565b9750506020620006758a828b0162000455565b9650506040620006888a828b0162000490565b95505060606200069b8a828b0162000490565b9450506080620006ae8a828b0162000490565b93505060a088015167ffffffffffffffff811115620006d257620006d162000402565b5b620006e08a828b01620005fd565b92505060c088015167ffffffffffffffff81111562000704576200070362000402565b5b620007128a828b01620005fd565b91505092959891949750929550565b600082825260208201905092915050565b7f4275796572204164647265737320616e642073656c6c6572204164647265737360008201527f2063616e2774206265207468652073616d650000000000000000000000000000602082015250565b60006200079060328362000721565b91506200079d8262000732565b604082019050919050565b60006020820190508181036000830152620007c38162000781565b9050919050565b7f4e487b7100000000000000000000000000000000000000000000000000000000600052601160045260246000fd5b600062000806826200046c565b915062000813836200046c565b9250817fffffffffffffffffffffffffffffffffffffffffffffffffffffffffffffffff04831182151516156200084f576200084e620007ca565b5b828202905092915050565b7f4e487b7100000000000000000000000000000000000000000000000000000000600052601260045260246000fd5b600062000896826200046c565b9150620008a3836200046c565b925082620008b657620008b56200085a565b5b828204905092915050565b7f4e487b7100000000000000000000000000000000000000000000000000000000600052602260045260246000fd5b600060028204905060018216806200090957607f821691505b6020821081141562000920576200091f620008c1565b5b50919050565b61309880620009366000396000f3fe6080604052600436106100705760003560e01c80634e69d5601161004e5780634e69d560146100b45780634f4b5e66146100df5780637022b58e146100f6578063ea8a1af01461010057610070565b80632a1440d6146100755780632a8732611461007f5780633a4b66f1146100aa575b600080fd5b61007d61010a565b005b34801561008b57600080fd5b50610094610679565b6040516100a191906124e9565b60405180910390f35b6100b261069f565b005b3480156100c057600080fd5b506100c9610b1c565b6040516100d69190612715565b60405180910390f35b3480156100eb57600080fd5b506100f4610f27565b005b6100fe611323565b005b610108611a83565b005b60008054906101000a900473ffffffffffffffffffffffffffffffffffffffff1673ffffffffffffffffffffffffffffffffffffffff163373ffffffffffffffffffffffffffffffffffffffff1614806101b15750600160009054906101000a900473ffffffffffffffffffffffffffffffffffffffff1673ffffffffffffffffffffffffffffffffffffffff163373ffffffffffffffffffffffffffffffffffffffff16145b6101f0576040517f08c379a00000000000000000000000000000000000000000000000000000000081526004016101e790612794565b60405180910390fd5b600a60009054906101000a900460ff1661023f576040517f08c379a000000000000000000000000000000000000000000000000000000000815260040161023690612800565b60405180910390fd5b600080600860008060009054906101000a900473ffffffffffffffffffffffffffffffffffffffff1673ffffffffffffffffffffffffffffffffffffffff1673ffffffffffffffffffffffffffffffffffffffff16815260200190815260200160002060009054906101000a900460ff168015610327575060086000600160009054906101000a900473ffffffffffffffffffffffffffffffffffffffff1673ffffffffffffffffffffffffffffffffffffffff1673ffffffffffffffffffffffffffffffffffffffff16815260200190815260200160002060009054906101000a900460ff165b90508115158115151461036f576040517f08c379a000000000000000000000000000000000000000000000000000000000815260040161036690612892565b60405180910390fd5b6000479050600860003373ffffffffffffffffffffffffffffffffffffffff1673ffffffffffffffffffffffffffffffffffffffff16815260200190815260200160002060009054906101000a900460ff16610400576040517f08c379a00000000000000000000000000000000000000000000000000000000081526004016103f7906128fe565b60405180910390fd5b600760003373ffffffffffffffffffffffffffffffffffffffff1673ffffffffffffffffffffffffffffffffffffffff16815260200190815260200160002054811015610482576040517f08c379a000000000000000000000000000000000000000000000000000000000815260040161047990612990565b60405180910390fd5b60003373ffffffffffffffffffffffffffffffffffffffff16600760003373ffffffffffffffffffffffffffffffffffffffff1673ffffffffffffffffffffffffffffffffffffffff168152602001908152602001600020546040516104e7906129e1565b60006040518083038185875af1925050503d8060008114610524576040519150601f19603f3d011682016040523d82523d6000602084013e610529565b606091505b505090508061056d576040517f08c379a000000000000000000000000000000000000000000000000000000000815260040161056490612a42565b60405180910390fd5b6000600860003373ffffffffffffffffffffffffffffffffffffffff1673ffffffffffffffffffffffffffffffffffffffff16815260200190815260200160002060006101000a81548160ff021916908315150217905550600160009054906101000a900473ffffffffffffffffffffffffffffffffffffffff1673ffffffffffffffffffffffffffffffffffffffff1660008054906101000a900473ffffffffffffffffffffffffffffffffffffffff1673ffffffffffffffffffffffffffffffffffffffff167f7e60eee2bb7fb00a7c2c55d3e7697bb6f1f6075e558a99a1677bd898b2d2f10061065e610b1c565b60405161066b9190612715565b60405180910390a350505050565b600a60029054906101000a900473ffffffffffffffffffffffffffffffffffffffff1681565b60008054906101000a900473ffffffffffffffffffffffffffffffffffffffff1673ffffffffffffffffffffffffffffffffffffffff163373ffffffffffffffffffffffffffffffffffffffff1614806107465750600160009054906101000a900473ffffffffffffffffffffffffffffffffffffffff1673ffffffffffffffffffffffffffffffffffffffff163373ffffffffffffffffffffffffffffffffffffffff16145b610785576040517f08c379a000000000000000000000000000000000000000000000000000000000815260040161077c90612794565b60405180910390fd5b600a60009054906101000a900460ff166107d4576040517f08c379a00000000000000000000000000000000000000000000000000000000081526004016107cb90612800565b60405180910390fd5b600080600860008060009054906101000a900473ffffffffffffffffffffffffffffffffffffffff1673ffffffffffffffffffffffffffffffffffffffff1673ffffffffffffffffffffffffffffffffffffffff16815260200190815260200160002060009054906101000a900460ff1680156108bc575060086000600160009054906101000a900473ffffffffffffffffffffffffffffffffffffffff1673ffffffffffffffffffffffffffffffffffffffff1673ffffffffffffffffffffffffffffffffffffffff16815260200190815260200160002060009054906101000a900460ff165b905081151581151514610904576040517f08c379a00000000000000000000000000000000000000000000000000000000081526004016108fb90612892565b60405180910390fd5b600860003373ffffffffffffffffffffffffffffffffffffffff1673ffffffffffffffffffffffffffffffffffffffff16815260200190815260200160002060009054906101000a900460ff1615610991576040517f08c379a000000000000000000000000000000000000000000000000000000000815260040161098890612aae565b60405180910390fd5b600760003373ffffffffffffffffffffffffffffffffffffffff1673ffffffffffffffffffffffffffffffffffffffff168152602001908152602001600020543414610a12576040517f08c379a0000000000000000000000000000000000000000000000000000000008152600401610a0990612b1a565b60405180910390fd5b6001600860003373ffffffffffffffffffffffffffffffffffffffff1673ffffffffffffffffffffffffffffffffffffffff16815260200190815260200160002060006101000a81548160ff021916908315150217905550600160009054906101000a900473ffffffffffffffffffffffffffffffffffffffff1673ffffffffffffffffffffffffffffffffffffffff1660008054906101000a900473ffffffffffffffffffffffffffffffffffffffff1673ffffffffffffffffffffffffffffffffffffffff167f7e60eee2bb7fb00a7c2c55d3e7697bb6f1f6075e558a99a1677bd898b2d2f100610b03610b1c565b604051610b109190612715565b60405180910390a35050565b610b246123eb565b604051806101c0016040528060008054906101000a900473ffffffffffffffffffffffffffffffffffffffff1673ffffffffffffffffffffffffffffffffffffffff168152602001600160009054906101000a900473ffffffffffffffffffffffffffffffffffffffff1673ffffffffffffffffffffffffffffffffffffffff16815260200160025481526020016003548152602001600454815260200160058054610bcf90612b69565b80601f0160208091040260200160405190810160405280929190818152602001828054610bfb90612b69565b8015610c485780601f10610c1d57610100808354040283529160200191610c48565b820191906000526020600020905b815481529060010190602001808311610c2b57829003601f168201915b5050505050815260200160068054610c5f90612b69565b80601f0160208091040260200160405190810160405280929190818152602001828054610c8b90612b69565b8015610cd85780601f10610cad57610100808354040283529160200191610cd8565b820191906000526020600020905b815481529060010190602001808311610cbb57829003601f168201915b50505050508152602001600860008060009054906101000a900473ffffffffffffffffffffffffffffffffffffffff1673ffffffffffffffffffffffffffffffffffffffff1673ffffffffffffffffffffffffffffffffffffffff16815260200190815260200160002060009054906101000a900460ff161515815260200160086000600160009054906101000a900473ffffffffffffffffffffffffffffffffffffffff1673ffffffffffffffffffffffffffffffffffffffff1673ffffffffffffffffffffffffffffffffffffffff16815260200190815260200160002060009054906101000a900460ff1615158152602001600960008060009054906101000a900473ffffffffffffffffffffffffffffffffffffffff1673ffffffffffffffffffffffffffffffffffffffff1673ffffffffffffffffffffffffffffffffffffffff16815260200190815260200160002060009054906101000a900460ff161515815260200160096000600160009054906101000a900473ffffffffffffffffffffffffffffffffffffffff1673ffffffffffffffffffffffffffffffffffffffff1673ffffffffffffffffffffffffffffffffffffffff16815260200190815260200160002060009054906101000a900460ff1615158152602001600a60009054906101000a900460ff1615158152602001600a60019054906101000a900460ff1615158152602001600a60029054906101000a900473ffffffffffffffffffffffffffffffffffffffff1673ffffffffffffffffffffffffffffffffffffffff16815250905090565b60008054906101000a900473ffffffffffffffffffffffffffffffffffffffff1673ffffffffffffffffffffffffffffffffffffffff163373ffffffffffffffffffffffffffffffffffffffff161480610fce5750600160009054906101000a900473ffffffffffffffffffffffffffffffffffffffff1673ffffffffffffffffffffffffffffffffffffffff163373ffffffffffffffffffffffffffffffffffffffff16145b61100d576040517f08c379a000000000000000000000000000000000000000000000000000000000815260040161100490612794565b60405180910390fd5b600a60009054906101000a900460ff1661105c576040517f08c379a000000000000000000000000000000000000000000000000000000000815260040161105390612800565b60405180910390fd5b60016000600860008060009054906101000a900473ffffffffffffffffffffffffffffffffffffffff1673ffffffffffffffffffffffffffffffffffffffff1673ffffffffffffffffffffffffffffffffffffffff16815260200190815260200160002060009054906101000a900460ff168015611145575060086000600160009054906101000a900473ffffffffffffffffffffffffffffffffffffffff1673ffffffffffffffffffffffffffffffffffffffff1673ffffffffffffffffffffffffffffffffffffffff16815260200190815260200160002060009054906101000a900460ff165b90508115158115151461118d576040517f08c379a000000000000000000000000000000000000000000000000000000000815260040161118490612892565b60405180910390fd5b600960003373ffffffffffffffffffffffffffffffffffffffff1673ffffffffffffffffffffffffffffffffffffffff16815260200190815260200160002060009054906101000a900460ff16611219576040517f08c379a000000000000000000000000000000000000000000000000000000000815260040161121090612c0d565b60405180910390fd5b6000600960003373ffffffffffffffffffffffffffffffffffffffff1673ffffffffffffffffffffffffffffffffffffffff16815260200190815260200160002060006101000a81548160ff021916908315150217905550600160009054906101000a900473ffffffffffffffffffffffffffffffffffffffff1673ffffffffffffffffffffffffffffffffffffffff1660008054906101000a900473ffffffffffffffffffffffffffffffffffffffff1673ffffffffffffffffffffffffffffffffffffffff167f7e60eee2bb7fb00a7c2c55d3e7697bb6f1f6075e558a99a1677bd898b2d2f10061130a610b1c565b6040516113179190612715565b60405180910390a35050565b60008054906101000a900473ffffffffffffffffffffffffffffffffffffffff1673ffffffffffffffffffffffffffffffffffffffff163373ffffffffffffffffffffffffffffffffffffffff16146113b1576040517f08c379a00000000000000000000000000000000000000000000000000000000081526004016113a890612c79565b60405180910390fd5b600a60009054906101000a900460ff16611400576040517f08c379a00000000000000000000000000000000000000000000000000000000081526004016113f790612800565b60405180910390fd5b60016000600860008060009054906101000a900473ffffffffffffffffffffffffffffffffffffffff1673ffffffffffffffffffffffffffffffffffffffff1673ffffffffffffffffffffffffffffffffffffffff16815260200190815260200160002060009054906101000a900460ff1680156114e9575060086000600160009054906101000a900473ffffffffffffffffffffffffffffffffffffffff1673ffffffffffffffffffffffffffffffffffffffff1673ffffffffffffffffffffffffffffffffffffffff16815260200190815260200160002060009054906101000a900460ff165b905081151581151514611531576040517f08c379a000000000000000000000000000000000000000000000000000000000815260040161152890612892565b60405180910390fd5b600960008060009054906101000a900473ffffffffffffffffffffffffffffffffffffffff1673ffffffffffffffffffffffffffffffffffffffff1673ffffffffffffffffffffffffffffffffffffffff16815260200190815260200160002060009054906101000a900460ff16158015611618575060096000600160009054906101000a900473ffffffffffffffffffffffffffffffffffffffff1673ffffffffffffffffffffffffffffffffffffffff1673ffffffffffffffffffffffffffffffffffffffff16815260200190815260200160002060009054906101000a900460ff16155b611657576040517f08c379a000000000000000000000000000000000000000000000000000000000815260040161164e90612d0b565b60405180910390fd5b60025447101561169c576040517f08c379a000000000000000000000000000000000000000000000000000000000815260040161169390612d77565b60405180910390fd5b60008060009054906101000a900473ffffffffffffffffffffffffffffffffffffffff1673ffffffffffffffffffffffffffffffffffffffff1660076000600160009054906101000a900473ffffffffffffffffffffffffffffffffffffffff1673ffffffffffffffffffffffffffffffffffffffff1673ffffffffffffffffffffffffffffffffffffffff16815260200190815260200160002054604051611744906129e1565b60006040518083038185875af1925050503d8060008114611781576040519150601f19603f3d011682016040523d82523d6000602084013e611786565b606091505b505090506000600160009054906101000a900473ffffffffffffffffffffffffffffffffffffffff1673ffffffffffffffffffffffffffffffffffffffff16600760008060009054906101000a900473ffffffffffffffffffffffffffffffffffffffff1673ffffffffffffffffffffffffffffffffffffffff1673ffffffffffffffffffffffffffffffffffffffff16815260200190815260200160002054604051611832906129e1565b60006040518083038185875af1925050503d806000811461186f576040519150601f19603f3d011682016040523d82523d6000602084013e611874565b606091505b505090508180156118825750805b6118c1576040517f08c379a00000000000000000000000000000000000000000000000000000000081526004016118b890612de3565b60405180910390fd5b6000600860008060009054906101000a900473ffffffffffffffffffffffffffffffffffffffff1673ffffffffffffffffffffffffffffffffffffffff1673ffffffffffffffffffffffffffffffffffffffff16815260200190815260200160002060006101000a81548160ff021916908315150217905550600060086000600160009054906101000a900473ffffffffffffffffffffffffffffffffffffffff1673ffffffffffffffffffffffffffffffffffffffff1673ffffffffffffffffffffffffffffffffffffffff16815260200190815260200160002060006101000a81548160ff0219169083151502179055506000600a60006101000a81548160ff021916908315150217905550600160009054906101000a900473ffffffffffffffffffffffffffffffffffffffff1673ffffffffffffffffffffffffffffffffffffffff1660008054906101000a900473ffffffffffffffffffffffffffffffffffffffff1673ffffffffffffffffffffffffffffffffffffffff167f7e60eee2bb7fb00a7c2c55d3e7697bb6f1f6075e558a99a1677bd898b2d2f100611a68610b1c565b604051611a759190612715565b60405180910390a350505050565b60008054906101000a900473ffffffffffffffffffffffffffffffffffffffff1673ffffffffffffffffffffffffffffffffffffffff163373ffffffffffffffffffffffffffffffffffffffff161480611b2a5750600160009054906101000a900473ffffffffffffffffffffffffffffffffffffffff1673ffffffffffffffffffffffffffffffffffffffff163373ffffffffffffffffffffffffffffffffffffffff16145b611b69576040517f08c379a0000000000000000000000000000000000000000000000000000000008152600401611b6090612794565b60405180910390fd5b600a60009054906101000a900460ff16611bb8576040517f08c379a0000000000000000000000000000000000000000000000000000000008152600401611baf90612800565b60405180910390fd5b60016000600860008060009054906101000a900473ffffffffffffffffffffffffffffffffffffffff1673ffffffffffffffffffffffffffffffffffffffff1673ffffffffffffffffffffffffffffffffffffffff16815260200190815260200160002060009054906101000a900460ff168015611ca1575060086000600160009054906101000a900473ffffffffffffffffffffffffffffffffffffffff1673ffffffffffffffffffffffffffffffffffffffff1673ffffffffffffffffffffffffffffffffffffffff16815260200190815260200160002060009054906101000a900460ff165b905081151581151514611ce9576040517f08c379a0000000000000000000000000000000000000000000000000000000008152600401611ce090612892565b60405180910390fd5b600960003373ffffffffffffffffffffffffffffffffffffffff1673ffffffffffffffffffffffffffffffffffffffff16815260200190815260200160002060009054906101000a900460ff1615611d76576040517f08c379a0000000000000000000000000000000000000000000000000000000008152600401611d6d90612e75565b60405180910390fd5b6001600960003373ffffffffffffffffffffffffffffffffffffffff1673ffffffffffffffffffffffffffffffffffffffff16815260200190815260200160002060006101000a81548160ff021916908315150217905550600960008060009054906101000a900473ffffffffffffffffffffffffffffffffffffffff1673ffffffffffffffffffffffffffffffffffffffff1673ffffffffffffffffffffffffffffffffffffffff16815260200190815260200160002060009054906101000a900460ff168015611eb3575060096000600160009054906101000a900473ffffffffffffffffffffffffffffffffffffffff1673ffffffffffffffffffffffffffffffffffffffff1673ffffffffffffffffffffffffffffffffffffffff16815260200190815260200160002060009054906101000a900460ff165b1561230d57600254471015611efd576040517f08c379a0000000000000000000000000000000000000000000000000000000008152600401611ef490612ee1565b60405180910390fd5b60008060009054906101000a900473ffffffffffffffffffffffffffffffffffffffff1673ffffffffffffffffffffffffffffffffffffffff16600760008060009054906101000a900473ffffffffffffffffffffffffffffffffffffffff1673ffffffffffffffffffffffffffffffffffffffff1673ffffffffffffffffffffffffffffffffffffffff16815260200190815260200160002054604051611fa4906129e1565b60006040518083038185875af1925050503d8060008114611fe1576040519150601f19603f3d011682016040523d82523d6000602084013e611fe6565b606091505b505090506000600160009054906101000a900473ffffffffffffffffffffffffffffffffffffffff1673ffffffffffffffffffffffffffffffffffffffff1660076000600160009054906101000a900473ffffffffffffffffffffffffffffffffffffffff1673ffffffffffffffffffffffffffffffffffffffff1673ffffffffffffffffffffffffffffffffffffffff16815260200190815260200160002054604051612093906129e1565b60006040518083038185875af1925050503d80600081146120d0576040519150601f19603f3d011682016040523d82523d6000602084013e6120d5565b606091505b505090508180156120e35750805b612122576040517f08c379a000000000000000000000000000000000000000000000000000000000815260040161211990612de3565b60405180910390fd5b6000604051806040016040528060008054906101000a900473ffffffffffffffffffffffffffffffffffffffff1673ffffffffffffffffffffffffffffffffffffffff1673ffffffffffffffffffffffffffffffffffffffff168152602001600160009054906101000a900473ffffffffffffffffffffffffffffffffffffffff1673ffffffffffffffffffffffffffffffffffffffff1673ffffffffffffffffffffffffffffffffffffffff16815250905060005b60028110156122d2576000600960008484600281106121fa576121f9612f01565b5b602002015173ffffffffffffffffffffffffffffffffffffffff1673ffffffffffffffffffffffffffffffffffffffff16815260200190815260200160002060006101000a81548160ff02191690831515021790555060006008600084846002811061226957612268612f01565b5b602002015173ffffffffffffffffffffffffffffffffffffffff1673ffffffffffffffffffffffffffffffffffffffff16815260200190815260200160002060006101000a81548160ff02191690831515021790555080806122ca90612f5f565b9150506121d8565b506000600a60006101000a81548160ff0219169083151502179055506001600a60016101000a81548160ff0219169083151502179055505050505b600160009054906101000a900473ffffffffffffffffffffffffffffffffffffffff1673ffffffffffffffffffffffffffffffffffffffff1660008054906101000a900473ffffffffffffffffffffffffffffffffffffffff1673ffffffffffffffffffffffffffffffffffffffff167f7e60eee2bb7fb00a7c2c55d3e7697bb6f1f6075e558a99a1677bd898b2d2f1006123a6610b1c565b6040516123b39190612715565b60405180910390a35050565b600081836123cd9190612fa8565b905092915050565b600081836123e39190613031565b905092915050565b604051806101c00160405280600073ffffffffffffffffffffffffffffffffffffffff168152602001600073ffffffffffffffffffffffffffffffffffffffff1681526020016000815260200160008152602001600081526020016060815260200160608152602001600015158152602001600015158152602001600015158152602001600015158152602001600015158152602001600015158152602001600073ffffffffffffffffffffffffffffffffffffffff1681525090565b600073ffffffffffffffffffffffffffffffffffffffff82169050919050565b60006124d3826124a8565b9050919050565b6124e3816124c8565b82525050565b60006020820190506124fe60008301846124da565b92915050565b61250d816124c8565b82525050565b6000819050919050565b61252681612513565b82525050565b600081519050919050565b600082825260208201905092915050565b60005b8381101561256657808201518184015260208101905061254b565b83811115612575576000848401525b50505050565b6000601f19601f8301169050919050565b60006125978261252c565b6125a18185612537565b93506125b1818560208601612548565b6125ba8161257b565b840191505092915050565b60008115159050919050565b6125da816125c5565b82525050565b60006101c0830160008301516125f96000860182612504565b50602083015161260c6020860182612504565b50604083015161261f604086018261251d565b506060830151612632606086018261251d565b506080830151612645608086018261251d565b5060a083015184820360a086015261265d828261258c565b91505060c083015184820360c0860152612677828261258c565b91505060e083015161268c60e08601826125d1565b506101008301516126a16101008601826125d1565b506101208301516126b66101208601826125d1565b506101408301516126cb6101408601826125d1565b506101608301516126e06101608601826125d1565b506101808301516126f56101808601826125d1565b506101a083015161270a6101a0860182612504565b508091505092915050565b6000602082019050818103600083015261272f81846125e0565b905092915050565b600082825260208201905092915050565b7f4f6e6c7920616c6c6f772061677265656d656e74207061727469657321000000600082015250565b600061277e601d83612737565b915061278982612748565b602082019050919050565b600060208201905081810360008301526127ad81612771565b9050919050565b7f41677265656d656e74206973206e6f7420616374697665000000000000000000600082015250565b60006127ea601783612737565b91506127f5826127b4565b602082019050919050565b60006020820190508181036000830152612819816127dd565b9050919050565b7f41677265656d656e742073746174757320646f6573206e6f74207065726d697460008201527f207468697320616374696f6e2e00000000000000000000000000000000000000602082015250565b600061287c602d83612737565b915061288782612820565b604082019050919050565b600060208201905081810360008301526128ab8161286f565b9050919050565b7f4e6f207374616b656420796574212e0000000000000000000000000000000000600082015250565b60006128e8600f83612737565b91506128f3826128b2565b602082019050919050565b60006020820190508181036000830152612917816128db565b9050919050565b7f4e6f7420656e6f756768204d61746963206c65667420746f207769746864726160008201527f772e000000000000000000000000000000000000000000000000000000000000602082015250565b600061297a602283612737565b91506129858261291e565b604082019050919050565b600060208201905081810360008301526129a98161296d565b9050919050565b600081905092915050565b50565b60006129cb6000836129b0565b91506129d6826129bb565b600082019050919050565b60006129ec826129be565b9150819050919050565b7f5472616e73666572206661696c65642e00000000000000000000000000000000600082015250565b6000612a2c601083612737565b9150612a37826129f6565b602082019050919050565b60006020820190508181036000830152612a5b81612a1f565b9050919050565b7f416c7265616479207374616b652074686520616d6f756e742e00000000000000600082015250565b6000612a98601983612737565b9150612aa382612a62565b602082019050919050565b60006020820190508181036000830152612ac781612a8b565b9050919050565b7f496e636f7272656374207374616b696e6720616d6f756e742073656e742e0000600082015250565b6000612b04601e83612737565b9150612b0f82612ace565b602082019050919050565b60006020820190508181036000830152612b3381612af7565b9050919050565b7f4e487b7100000000000000000000000000000000000000000000000000000000600052602260045260246000fd5b60006002820490506001821680612b8157607f821691505b60208210811415612b9557612b94612b3a565b5b50919050565b7f446f65736e2774206861766520612063616e63656c207265717565737420746f60008201527f207265766f6b6500000000000000000000000000000000000000000000000000602082015250565b6000612bf7602783612737565b9150612c0282612b9b565b604082019050919050565b60006020820190508181036000830152612c2681612bea565b9050919050565b7f4f6e6c7920616c6c6f772061677265656d656e74206275796572000000000000600082015250565b6000612c63601a83612737565b9150612c6e82612c2d565b602082019050919050565b60006020820190508181036000830152612c9281612c56565b9050919050565b7f43616e6e6f7420636f6e6669726d206173206174206c65617374206f6e65202060008201527f7265717565737465642063616e63656c21000000000000000000000000000000602082015250565b6000612cf5603183612737565b9150612d0082612c99565b604082019050919050565b60006020820190508181036000830152612d2481612ce8565b9050919050565b7f4e6f7420656e6f756768204d6174696300000000000000000000000000000000600082015250565b6000612d61601083612737565b9150612d6c82612d2b565b602082019050919050565b60006020820190508181036000830152612d9081612d54565b9050919050565b7f5472616e7366657220686173206661696c656400000000000000000000000000600082015250565b6000612dcd601383612737565b9150612dd882612d97565b602082019050919050565b60006020820190508181036000830152612dfc81612dc0565b9050919050565b7f20416c72656164792069737375656420612063616e63656c6c6174696f6e207260008201527f6571756573742e00000000000000000000000000000000000000000000000000602082015250565b6000612e5f602783612737565b9150612e6a82612e03565b604082019050919050565b60006020820190508181036000830152612e8e81612e52565b9050919050565b7f4e6f7420656e6f756768204d617469632e000000000000000000000000000000600082015250565b6000612ecb601183612737565b9150612ed682612e95565b602082019050919050565b60006020820190508181036000830152612efa81612ebe565b9050919050565b7f4e487b7100000000000000000000000000000000000000000000000000000000600052603260045260246000fd5b7f4e487b7100000000000000000000000000000000000000000000000000000000600052601160045260246000fd5b6000612f6a82612513565b91507fffffffffffffffffffffffffffffffffffffffffffffffffffffffffffffffff821415612f9d57612f9c612f30565b5b600182019050919050565b6000612fb382612513565b9150612fbe83612513565b9250817fffffffffffffffffffffffffffffffffffffffffffffffffffffffffffffffff0483118215151615612ff757612ff6612f30565b5b828202905092915050565b7f4e487b7100000000000000000000000000000000000000000000000000000000600052601260045260246000fd5b600061303c82612513565b915061304783612513565b92508261305757613056613002565b5b82820490509291505056fea26469706673582212201915027c85e9a7de9e1577cf0836686102a7b565241be8b24594193b7613c2d264736f6c634300080b0033",
  "immutableReferences": {},
  "source": "// SPDX-License-Identifier: UNLICENSED\npragma solidity ^0.8.0;\n\nimport \"@openzeppelin/contracts/utils/math/SafeMath.sol\";\n\ncontract Agreement {\n    using SafeMath for uint256;\n\n    address payable private _buyer;\n    address payable private _seller;\n    uint256 private _salePrice;\n    uint256 private _statePercent;\n    uint256 private _sellerPercent;\n    string private _title;\n    string private _description;\n    mapping(address => uint256) private _stakeAmount;\n\n    mapping(address => bool) private _stakeStatus;\n    mapping(address => bool) private _cancelStatus;\n    bool private _isActive;\n    bool private _isCancelled;\n\n    address public agreementAddress;\n\n    struct ContractStatus {\n        address buyer;\n        address seller;\n        uint256 salePrice;\n        uint256 statePercent;\n        uint256 sellerPercent;\n        string title;\n        string description;\n        bool buyerStake;\n        bool sellerStake;\n        bool buyerCancel;\n        bool sellerCancel;\n        bool active;\n        bool cancelled;\n        address agreAddress;\n    }\n\n    event AgreementStateChanged(\n        address indexed buyer,\n        address indexed seller,\n        ContractStatus state\n    );\n\n    constructor(\n        address payable _buyerAddress,\n        address payable _sellerAddress,\n        uint256 _price,\n        uint256 _percent,\n        uint256 _sPer,\n        string memory _titleA,\n        string memory _descriptionA\n    ) {\n        require(\n            _buyerAddress != _sellerAddress,\n            \"Buyer Address and seller Address can't be the same\"\n        );\n\n        _buyer = _buyerAddress;\n        _seller = _sellerAddress;\n        _salePrice = _price;\n        _statePercent = _percent;\n        _sellerPercent = _sPer;\n        _title = _titleA;\n        _description = _descriptionA;\n\n        _stakeAmount[_buyer] = _salePrice.mul(_statePercent).div(100);\n        _stakeAmount[_seller] = _salePrice.mul(_sellerPercent).div(100);\n        _isActive = true;\n        agreementAddress = address(this);\n    }\n\n    modifier onlyAgreementParties() {\n        require(\n            msg.sender == _buyer || msg.sender == _seller,\n            \"Only allow agreement parties!\"\n        );\n\n        _;\n    }\n\n    modifier onlyAgreementBuyer() {\n        require(msg.sender == _buyer, \"Only allow agreement buyer\");\n        _;\n    }\n\n    modifier onlyAgreementActive() {\n        require(_isActive, \"Agreement is not active\");\n\n        _;\n    }\n\n    modifier agreementLocked(bool _status) {\n        bool agreementLockStatus = _stakeStatus[_buyer] &&\n            _stakeStatus[_seller];\n        require(\n            agreementLockStatus == _status,\n            \"Agreement status does not permit this action.\"\n        );\n        _;\n    }\n\n    function stake()\n        public\n        payable\n        onlyAgreementParties\n        onlyAgreementActive\n        agreementLocked(false)\n    {\n        require(!_stakeStatus[msg.sender], \"Already stake the amount.\");\n        require(\n            msg.value == _stakeAmount[msg.sender],\n            \"Incorrect staking amount sent.\"\n        );\n        _stakeStatus[msg.sender] = true;\n        emit AgreementStateChanged(_buyer, _seller, getStatus());\n    }\n\n    function revokeStake()\n        public\n        payable\n        onlyAgreementParties\n        onlyAgreementActive\n        agreementLocked(false)\n    {\n        uint256 balance = address(this).balance;\n        require(_stakeStatus[msg.sender], \"No staked yet!.\");\n        require(\n            balance >= _stakeAmount[msg.sender],\n            \"Not enough Matic left to withdraw.\"\n        );\n        (bool success, ) = (msg.sender).call{value: _stakeAmount[msg.sender]}(\n            \"\"\n        );\n        require(success, \"Transfer failed.\");\n        _stakeStatus[msg.sender] = false;\n        emit AgreementStateChanged(_buyer, _seller, getStatus());\n    }\n\n    function cancel()\n        public\n        payable\n        onlyAgreementParties\n        onlyAgreementActive\n        agreementLocked(true)\n    {\n        require(\n            !_cancelStatus[msg.sender],\n            \" Already issued a cancellation request.\"\n        );\n        _cancelStatus[msg.sender] = true;\n        if (_cancelStatus[_buyer] && _cancelStatus[_seller]) {\n            require(address(this).balance >= _salePrice, \"Not enough Matic.\");\n\n            (bool buyerRefunded, ) = (_buyer).call{value: _stakeAmount[_buyer]}(\n                \"\"\n            );\n            (bool sellerRefunded, ) = (_seller).call{\n                value: _stakeAmount[_seller]\n            }(\"\");\n            require(buyerRefunded && sellerRefunded, \"Transfer has failed\");\n            address payable[2] memory arrays = [_buyer, _seller];\n\n            for (uint256 i = 0; i < arrays.length; i++) {\n                _cancelStatus[arrays[i]] = false;\n                _stakeStatus[arrays[i]] = false;\n            }\n\n            _isActive = false;\n            _isCancelled = true;\n        }\n\n        emit AgreementStateChanged(_buyer, _seller, getStatus());\n    }\n\n    function revokeCancellation()\n        public\n        onlyAgreementParties\n        onlyAgreementActive\n        agreementLocked(true)\n    {\n        require(\n            _cancelStatus[msg.sender],\n            \"Doesn't have a cancel request to revoke\"\n        );\n        _cancelStatus[msg.sender] = false;\n        emit AgreementStateChanged(_buyer, _seller, getStatus());\n    }\n\n    function confirm()\n        public\n        payable\n        onlyAgreementBuyer\n        onlyAgreementActive\n        agreementLocked(true)\n    {\n        require(\n            !_cancelStatus[_buyer] && !_cancelStatus[_seller],\n            \"Cannot confirm as at least one  requested cancel!\"\n        );\n        require(address(this).balance >= _salePrice, \"Not enough Matic\");\n        (bool buyerRefunded, ) = (_buyer).call{value: _stakeAmount[_seller]}(\n            \"\"\n        );\n        (bool sellerRefunded, ) = (_seller).call{value: _stakeAmount[_buyer]}(\n            \"\"\n        );\n        require(buyerRefunded && sellerRefunded, \"Transfer has failed\");\n        _stakeStatus[_buyer] = false;\n        _stakeStatus[_seller] = false;\n        _isActive = false;\n\n        emit AgreementStateChanged(_buyer, _seller, getStatus());\n    }\n\n    function getStatus() public view returns (ContractStatus memory) {\n        return\n            ContractStatus(\n                _buyer,\n                _seller,\n                _salePrice,\n                _statePercent,\n                _sellerPercent,\n                _title,\n                _description,\n                _stakeStatus[_buyer],\n                _stakeStatus[_seller],\n                _cancelStatus[_buyer],\n                _cancelStatus[_seller],\n                _isActive,\n                _isCancelled,\n                agreementAddress\n            );\n    }\n}\n",
  "sourcePath": "/Users/cc/Documents/Hachathon/Escrow_service/contracts/Agreement.sol",
  "compiler": {
    "name": "solc",
    "version": "0.8.11+commit.d7f03943.Emscripten.clang"
  },
  "schemaVersion": "3.4.6",
  "updatedAt": "2022-03-17T09:00:43.359Z",
  "devdoc": {
    "kind": "dev",
    "methods": {},
    "version": 1
  },
  "userdoc": {
    "kind": "user",
    "methods": {},
    "version": 1
  }
}