{
  "contractName": "AgreementContract",
  "abi": [
    {
      "inputs": [
        {
          "internalType": "address payable",
          "name": "_buyer",
          "type": "address"
        },
        {
          "internalType": "address payable",
          "name": "_seller",
          "type": "address"
        },
        {
          "internalType": "uint256",
          "name": "_price",
          "type": "uint256"
        },
        {
          "internalType": "uint256",
          "name": "_statePercent",
          "type": "uint256"
        },
        {
          "internalType": "uint256",
          "name": "_sellerPercent",
          "type": "uint256"
        },
        {
          "internalType": "string",
          "name": "_title",
          "type": "string"
        },
        {
          "internalType": "string",
          "name": "_description",
          "type": "string"
        }
      ],
      "name": "agreementCreate",
      "outputs": [],
      "stateMutability": "nonpayable",
      "type": "function"
    },
    {
      "anonymous": false,
      "inputs": [
        {
          "indexed": true,
          "internalType": "address",
          "name": "buyer",
          "type": "address"
        },
        {
          "indexed": true,
          "internalType": "address",
          "name": "seller",
          "type": "address"
        },
        {
          "indexed": false,
          "internalType": "uint256",
          "name": "price",
          "type": "uint256"
        },
        {
          "indexed": false,
          "internalType": "address",
          "name": "agreementAddress",
          "type": "address"
        },
        {
          "indexed": false,
          "internalType": "string",
          "name": "title",
          "type": "string"
        },
        {
          "indexed": false,
          "internalType": "string",
          "name": "description",
          "type": "string"
        }
      ],
      "name": "CreateAgreement",
      "type": "event"
    },
    {
      "inputs": [
        {
          "internalType": "address",
          "name": "",
          "type": "address"
        }
      ],
      "name": "agreementImap",
      "outputs": [
        {
          "internalType": "uint256",
          "name": "",
          "type": "uint256"
        }
      ],
      "stateMutability": "view",
      "type": "function"
    },
    {
      "inputs": [
        {
          "internalType": "address",
          "name": "",
          "type": "address"
        },
        {
          "internalType": "uint256",
          "name": "",
          "type": "uint256"
        }
      ],
      "name": "agreementMap",
      "outputs": [
        {
          "internalType": "contract Agreement",
          "name": "",
          "type": "address"
        }
      ],
      "stateMutability": "view",
      "type": "function"
    },
    {
      "inputs": [
        {
          "internalType": "uint256",
          "name": "",
          "type": "uint256"
        }
      ],
      "name": "agreements",
      "outputs": [
        {
          "internalType": "contract Agreement",
          "name": "",
          "type": "address"
        }
      ],
      "stateMutability": "view",
      "type": "function"
    },
    {
      "inputs": [
        {
          "internalType": "address",
          "name": "_addr",
          "type": "address"
        }
      ],
      "name": "getAgreementByAddress",
      "outputs": [
        {
          "internalType": "contract Agreement",
          "name": "",
          "type": "address"
        }
      ],
      "stateMutability": "view",
      "type": "function"
    },
    {
      "inputs": [
        {
          "internalType": "uint256",
          "name": "_index",
          "type": "uint256"
        }
      ],
      "name": "getAgreementByIndex",
      "outputs": [
        {
          "internalType": "contract Agreement",
          "name": "",
          "type": "address"
        }
      ],
      "stateMutability": "view",
      "type": "function"
    },
    {
      "inputs": [
        {
          "internalType": "address",
          "name": "_party",
          "type": "address"
        }
      ],
      "name": "getAgreementByParties",
      "outputs": [
        {
          "internalType": "contract Agreement[]",
          "name": "",
          "type": "address[]"
        }
      ],
      "stateMutability": "view",
      "type": "function"
    },
    {
      "inputs": [],
      "name": "getAllAgreements",
      "outputs": [
        {
          "internalType": "contract Agreement[]",
          "name": "",
          "type": "address[]"
        }
      ],
      "stateMutability": "view",
      "type": "function"
    }
  ],
  "bytecode": "0x608060405234801561001057600080fd5b50614a21806100206000396000f3fe60806040523480156200001157600080fd5b5060043610620000945760003560e01c8063947a58e81162000063578063947a58e8146200015d578063b6c7f9a21462000193578063bd14de9614620001b3578063f75af6f314620001e95762000094565b806321342a9714620000995780634e6873c714620000cf57806362272f9514620000f157806391a5caaf1462000127575b600080fd5b620000b76004803603810190620000b191906200091f565b6200021f565b604051620000c69190620009d1565b60405180910390f35b620000d96200026e565b604051620000e8919062000abc565b60405180910390f35b6200010f600480360381019062000109919062000ae0565b620002fe565b6040516200011e9190620009d1565b60405180910390f35b6200014560048036038101906200013f919062000b12565b62000348565b604051620001549190620009d1565b60405180910390f35b6200017b600480360381019062000175919062000b12565b620003d7565b6040516200018a919062000b55565b60405180910390f35b620001b16004803603810190620001ab919062000d19565b620003ef565b005b620001d16004803603810190620001cb919062000ae0565b6200072a565b604051620001e09190620009d1565b60405180910390f35b62000207600480360381019062000201919062000b12565b6200076a565b60405162000216919062000abc565b60405180910390f35b600260205281600052604060002081815481106200023c57600080fd5b906000526020600020016000915091509054906101000a900473ffffffffffffffffffffffffffffffffffffffff1681565b60606000805480602002602001604051908101604052809291908181526020018280548015620002f457602002820191906000526020600020905b8160009054906101000a900473ffffffffffffffffffffffffffffffffffffffff1673ffffffffffffffffffffffffffffffffffffffff1681526020019060010190808311620002a9575b5050505050905090565b600080828154811062000316576200031562000e0a565b5b9060005260206000200160009054906101000a900473ffffffffffffffffffffffffffffffffffffffff169050919050565b600080600360008473ffffffffffffffffffffffffffffffffffffffff1673ffffffffffffffffffffffffffffffffffffffff16815260200190815260200160002054905060008181548110620003a457620003a362000e0a565b5b9060005260206000200160009054906101000a900473ffffffffffffffffffffffffffffffffffffffff16915050919050565b60036020528060005260406000206000915090505481565b60008787878787878760405162000406906200085d565b62000418979695949392919062000edd565b604051809103906000f08015801562000435573d6000803e3d6000fd5b5090506000819080600181540180825580915050600190039060005260206000200160009091909190916101000a81548173ffffffffffffffffffffffffffffffffffffffff021916908373ffffffffffffffffffffffffffffffffffffffff1602179055506000620004a9600162000839565b905060008273ffffffffffffffffffffffffffffffffffffffff16632a8732616040518163ffffffff1660e01b8152600401602060405180830381865afa158015620004f9573d6000803e3d6000fd5b505050506040513d601f19601f820116820180604052508101906200051f919062000f7f565b905081600360008373ffffffffffffffffffffffffffffffffffffffff1673ffffffffffffffffffffffffffffffffffffffff1681526020019081526020016000208190555062000571600162000847565b600260008b73ffffffffffffffffffffffffffffffffffffffff1673ffffffffffffffffffffffffffffffffffffffff168152602001908152602001600020839080600181540180825580915050600190039060005260206000200160009091909190916101000a81548173ffffffffffffffffffffffffffffffffffffffff021916908373ffffffffffffffffffffffffffffffffffffffff160217905550600260008a73ffffffffffffffffffffffffffffffffffffffff1673ffffffffffffffffffffffffffffffffffffffff168152602001908152602001600020839080600181540180825580915050600190039060005260206000200160009091909190916101000a81548173ffffffffffffffffffffffffffffffffffffffff021916908373ffffffffffffffffffffffffffffffffffffffff1602179055508873ffffffffffffffffffffffffffffffffffffffff168a73ffffffffffffffffffffffffffffffffffffffff167f92eb2f15c8545c131d2cdd2959f5d2f98b26e65636f444b47a7f2bfd8c95b3748a84898960405162000716949392919062000fc2565b60405180910390a350505050505050505050565b600081815481106200073b57600080fd5b906000526020600020016000915054906101000a900473ffffffffffffffffffffffffffffffffffffffff1681565b6060600260008373ffffffffffffffffffffffffffffffffffffffff1673ffffffffffffffffffffffffffffffffffffffff1681526020019081526020016000208054806020026020016040519081016040528092919081815260200182805480156200082d57602002820191906000526020600020905b8160009054906101000a900473ffffffffffffffffffffffffffffffffffffffff1673ffffffffffffffffffffffffffffffffffffffff1681526020019060010190808311620007e2575b50505050509050919050565b600081600001549050919050565b6001816000016000828254019250508190555050565b6139ce806200101e83390190565b6000604051905090565b600080fd5b600080fd5b600073ffffffffffffffffffffffffffffffffffffffff82169050919050565b6000620008ac826200087f565b9050919050565b620008be816200089f565b8114620008ca57600080fd5b50565b600081359050620008de81620008b3565b92915050565b6000819050919050565b620008f981620008e4565b81146200090557600080fd5b50565b6000813590506200091981620008ee565b92915050565b6000806040838503121562000939576200093862000875565b5b60006200094985828601620008cd565b92505060206200095c8582860162000908565b9150509250929050565b6000819050919050565b6000620009916200098b62000985846200087f565b62000966565b6200087f565b9050919050565b6000620009a58262000970565b9050919050565b6000620009b98262000998565b9050919050565b620009cb81620009ac565b82525050565b6000602082019050620009e86000830184620009c0565b92915050565b600081519050919050565b600082825260208201905092915050565b6000819050602082019050919050565b62000a2581620009ac565b82525050565b600062000a39838362000a1a565b60208301905092915050565b6000602082019050919050565b600062000a5f82620009ee565b62000a6b8185620009f9565b935062000a788362000a0a565b8060005b8381101562000aaf57815162000a93888262000a2b565b975062000aa08362000a45565b92505060018101905062000a7c565b5085935050505092915050565b6000602082019050818103600083015262000ad8818462000a52565b905092915050565b60006020828403121562000af95762000af862000875565b5b600062000b098482850162000908565b91505092915050565b60006020828403121562000b2b5762000b2a62000875565b5b600062000b3b84828501620008cd565b91505092915050565b62000b4f81620008e4565b82525050565b600060208201905062000b6c600083018462000b44565b92915050565b600062000b7f826200087f565b9050919050565b62000b918162000b72565b811462000b9d57600080fd5b50565b60008135905062000bb18162000b86565b92915050565b600080fd5b600080fd5b6000601f19601f8301169050919050565b7f4e487b7100000000000000000000000000000000000000000000000000000000600052604160045260246000fd5b62000c0c8262000bc1565b810181811067ffffffffffffffff8211171562000c2e5762000c2d62000bd2565b5b80604052505050565b600062000c436200086b565b905062000c51828262000c01565b919050565b600067ffffffffffffffff82111562000c745762000c7362000bd2565b5b62000c7f8262000bc1565b9050602081019050919050565b82818337600083830152505050565b600062000cb262000cac8462000c56565b62000c37565b90508281526020810184848401111562000cd15762000cd062000bbc565b5b62000cde84828562000c8c565b509392505050565b600082601f83011262000cfe5762000cfd62000bb7565b5b813562000d1084826020860162000c9b565b91505092915050565b600080600080600080600060e0888a03121562000d3b5762000d3a62000875565b5b600062000d4b8a828b0162000ba0565b975050602062000d5e8a828b0162000ba0565b965050604062000d718a828b0162000908565b955050606062000d848a828b0162000908565b945050608062000d978a828b0162000908565b93505060a088013567ffffffffffffffff81111562000dbb5762000dba6200087a565b5b62000dc98a828b0162000ce6565b92505060c088013567ffffffffffffffff81111562000ded5762000dec6200087a565b5b62000dfb8a828b0162000ce6565b91505092959891949750929550565b7f4e487b7100000000000000000000000000000000000000000000000000000000600052603260045260246000fd5b62000e448162000b72565b82525050565b600081519050919050565b600082825260208201905092915050565b60005b8381101562000e8657808201518184015260208101905062000e69565b8381111562000e96576000848401525b50505050565b600062000ea98262000e4a565b62000eb5818562000e55565b935062000ec781856020860162000e66565b62000ed28162000bc1565b840191505092915050565b600060e08201905062000ef4600083018a62000e39565b62000f03602083018962000e39565b62000f12604083018862000b44565b62000f21606083018762000b44565b62000f30608083018662000b44565b81810360a083015262000f44818562000e9c565b905081810360c083015262000f5a818462000e9c565b905098975050505050505050565b60008151905062000f7981620008b3565b92915050565b60006020828403121562000f985762000f9762000875565b5b600062000fa88482850162000f68565b91505092915050565b62000fbc816200089f565b82525050565b600060808201905062000fd9600083018762000b44565b62000fe8602083018662000fb1565b818103604083015262000ffc818562000e9c565b9050818103606083015262001012818462000e9c565b90509594505050505056fe60806040523480156200001157600080fd5b50604051620039ce380380620039ce833981810160405281019062000037919062000630565b8573ffffffffffffffffffffffffffffffffffffffff168773ffffffffffffffffffffffffffffffffffffffff161415620000a9576040517f08c379a0000000000000000000000000000000000000000000000000000000008152600401620000a090620007a8565b60405180910390fd5b866000806101000a81548173ffffffffffffffffffffffffffffffffffffffff021916908373ffffffffffffffffffffffffffffffffffffffff16021790555085600160006101000a81548173ffffffffffffffffffffffffffffffffffffffff021916908373ffffffffffffffffffffffffffffffffffffffff16021790555084600281905550836003819055508260048190555081600590805190602001906200015792919062000343565b5080600690805190602001906200017092919062000343565b50620001a96064620001956003546002546200031360201b620023bf1790919060201c565b6200032b60201b620023d51790919060201c565b600760008060009054906101000a900473ffffffffffffffffffffffffffffffffffffffff1673ffffffffffffffffffffffffffffffffffffffff1673ffffffffffffffffffffffffffffffffffffffff16815260200190815260200160002081905550620002456064620002316004546002546200031360201b620023bf1790919060201c565b6200032b60201b620023d51790919060201c565b60076000600160009054906101000a900473ffffffffffffffffffffffffffffffffffffffff1673ffffffffffffffffffffffffffffffffffffffff1673ffffffffffffffffffffffffffffffffffffffff168152602001908152602001600020819055506001600a60006101000a81548160ff02191690831515021790555030600a60026101000a81548173ffffffffffffffffffffffffffffffffffffffff021916908373ffffffffffffffffffffffffffffffffffffffff1602179055505050505050505062000926565b60008183620003239190620007f9565b905092915050565b600081836200033b919062000889565b905092915050565b8280546200035190620008f0565b90600052602060002090601f016020900481019282620003755760008555620003c1565b82601f106200039057805160ff1916838001178555620003c1565b82800160010185558215620003c1579182015b82811115620003c0578251825591602001919060010190620003a3565b5b509050620003d09190620003d4565b5090565b5b80821115620003ef576000816000905550600101620003d5565b5090565b6000604051905090565b600080fd5b600080fd5b600073ffffffffffffffffffffffffffffffffffffffff82169050919050565b6000620004348262000407565b9050919050565b620004468162000427565b81146200045257600080fd5b50565b60008151905062000466816200043b565b92915050565b6000819050919050565b62000481816200046c565b81146200048d57600080fd5b50565b600081519050620004a18162000476565b92915050565b600080fd5b600080fd5b6000601f19601f8301169050919050565b7f4e487b7100000000000000000000000000000000000000000000000000000000600052604160045260246000fd5b620004fc82620004b1565b810181811067ffffffffffffffff821117156200051e576200051d620004c2565b5b80604052505050565b600062000533620003f3565b9050620005418282620004f1565b919050565b600067ffffffffffffffff821115620005645762000563620004c2565b5b6200056f82620004b1565b9050602081019050919050565b60005b838110156200059c5780820151818401526020810190506200057f565b83811115620005ac576000848401525b50505050565b6000620005c9620005c38462000546565b62000527565b905082815260208101848484011115620005e857620005e7620004ac565b5b620005f58482856200057c565b509392505050565b600082601f830112620006155762000614620004a7565b5b815162000627848260208601620005b2565b91505092915050565b600080600080600080600060e0888a031215620006525762000651620003fd565b5b6000620006628a828b0162000455565b9750506020620006758a828b0162000455565b9650506040620006888a828b0162000490565b95505060606200069b8a828b0162000490565b9450506080620006ae8a828b0162000490565b93505060a088015167ffffffffffffffff811115620006d257620006d162000402565b5b620006e08a828b01620005fd565b92505060c088015167ffffffffffffffff81111562000704576200070362000402565b5b620007128a828b01620005fd565b91505092959891949750929550565b600082825260208201905092915050565b7f4275796572204164647265737320616e642073656c6c6572204164647265737360008201527f2063616e2774206265207468652073616d650000000000000000000000000000602082015250565b60006200079060328362000721565b91506200079d8262000732565b604082019050919050565b60006020820190508181036000830152620007c38162000781565b9050919050565b7f4e487b7100000000000000000000000000000000000000000000000000000000600052601160045260246000fd5b600062000806826200046c565b915062000813836200046c565b9250817fffffffffffffffffffffffffffffffffffffffffffffffffffffffffffffffff04831182151516156200084f576200084e620007ca565b5b828202905092915050565b7f4e487b7100000000000000000000000000000000000000000000000000000000600052601260045260246000fd5b600062000896826200046c565b9150620008a3836200046c565b925082620008b657620008b56200085a565b5b828204905092915050565b7f4e487b7100000000000000000000000000000000000000000000000000000000600052602260045260246000fd5b600060028204905060018216806200090957607f821691505b6020821081141562000920576200091f620008c1565b5b50919050565b61309880620009366000396000f3fe6080604052600436106100705760003560e01c80634e69d5601161004e5780634e69d560146100b45780634f4b5e66146100df5780637022b58e146100f6578063ea8a1af01461010057610070565b80632a1440d6146100755780632a8732611461007f5780633a4b66f1146100aa575b600080fd5b61007d61010a565b005b34801561008b57600080fd5b50610094610679565b6040516100a191906124e9565b60405180910390f35b6100b261069f565b005b3480156100c057600080fd5b506100c9610b1c565b6040516100d69190612715565b60405180910390f35b3480156100eb57600080fd5b506100f4610f27565b005b6100fe611323565b005b610108611a83565b005b60008054906101000a900473ffffffffffffffffffffffffffffffffffffffff1673ffffffffffffffffffffffffffffffffffffffff163373ffffffffffffffffffffffffffffffffffffffff1614806101b15750600160009054906101000a900473ffffffffffffffffffffffffffffffffffffffff1673ffffffffffffffffffffffffffffffffffffffff163373ffffffffffffffffffffffffffffffffffffffff16145b6101f0576040517f08c379a00000000000000000000000000000000000000000000000000000000081526004016101e790612794565b60405180910390fd5b600a60009054906101000a900460ff1661023f576040517f08c379a000000000000000000000000000000000000000000000000000000000815260040161023690612800565b60405180910390fd5b600080600860008060009054906101000a900473ffffffffffffffffffffffffffffffffffffffff1673ffffffffffffffffffffffffffffffffffffffff1673ffffffffffffffffffffffffffffffffffffffff16815260200190815260200160002060009054906101000a900460ff168015610327575060086000600160009054906101000a900473ffffffffffffffffffffffffffffffffffffffff1673ffffffffffffffffffffffffffffffffffffffff1673ffffffffffffffffffffffffffffffffffffffff16815260200190815260200160002060009054906101000a900460ff165b90508115158115151461036f576040517f08c379a000000000000000000000000000000000000000000000000000000000815260040161036690612892565b60405180910390fd5b6000479050600860003373ffffffffffffffffffffffffffffffffffffffff1673ffffffffffffffffffffffffffffffffffffffff16815260200190815260200160002060009054906101000a900460ff16610400576040517f08c379a00000000000000000000000000000000000000000000000000000000081526004016103f7906128fe565b60405180910390fd5b600760003373ffffffffffffffffffffffffffffffffffffffff1673ffffffffffffffffffffffffffffffffffffffff16815260200190815260200160002054811015610482576040517f08c379a000000000000000000000000000000000000000000000000000000000815260040161047990612990565b60405180910390fd5b60003373ffffffffffffffffffffffffffffffffffffffff16600760003373ffffffffffffffffffffffffffffffffffffffff1673ffffffffffffffffffffffffffffffffffffffff168152602001908152602001600020546040516104e7906129e1565b60006040518083038185875af1925050503d8060008114610524576040519150601f19603f3d011682016040523d82523d6000602084013e610529565b606091505b505090508061056d576040517f08c379a000000000000000000000000000000000000000000000000000000000815260040161056490612a42565b60405180910390fd5b6000600860003373ffffffffffffffffffffffffffffffffffffffff1673ffffffffffffffffffffffffffffffffffffffff16815260200190815260200160002060006101000a81548160ff021916908315150217905550600160009054906101000a900473ffffffffffffffffffffffffffffffffffffffff1673ffffffffffffffffffffffffffffffffffffffff1660008054906101000a900473ffffffffffffffffffffffffffffffffffffffff1673ffffffffffffffffffffffffffffffffffffffff167f7e60eee2bb7fb00a7c2c55d3e7697bb6f1f6075e558a99a1677bd898b2d2f10061065e610b1c565b60405161066b9190612715565b60405180910390a350505050565b600a60029054906101000a900473ffffffffffffffffffffffffffffffffffffffff1681565b60008054906101000a900473ffffffffffffffffffffffffffffffffffffffff1673ffffffffffffffffffffffffffffffffffffffff163373ffffffffffffffffffffffffffffffffffffffff1614806107465750600160009054906101000a900473ffffffffffffffffffffffffffffffffffffffff1673ffffffffffffffffffffffffffffffffffffffff163373ffffffffffffffffffffffffffffffffffffffff16145b610785576040517f08c379a000000000000000000000000000000000000000000000000000000000815260040161077c90612794565b60405180910390fd5b600a60009054906101000a900460ff166107d4576040517f08c379a00000000000000000000000000000000000000000000000000000000081526004016107cb90612800565b60405180910390fd5b600080600860008060009054906101000a900473ffffffffffffffffffffffffffffffffffffffff1673ffffffffffffffffffffffffffffffffffffffff1673ffffffffffffffffffffffffffffffffffffffff16815260200190815260200160002060009054906101000a900460ff1680156108bc575060086000600160009054906101000a900473ffffffffffffffffffffffffffffffffffffffff1673ffffffffffffffffffffffffffffffffffffffff1673ffffffffffffffffffffffffffffffffffffffff16815260200190815260200160002060009054906101000a900460ff165b905081151581151514610904576040517f08c379a00000000000000000000000000000000000000000000000000000000081526004016108fb90612892565b60405180910390fd5b600860003373ffffffffffffffffffffffffffffffffffffffff1673ffffffffffffffffffffffffffffffffffffffff16815260200190815260200160002060009054906101000a900460ff1615610991576040517f08c379a000000000000000000000000000000000000000000000000000000000815260040161098890612aae565b60405180910390fd5b600760003373ffffffffffffffffffffffffffffffffffffffff1673ffffffffffffffffffffffffffffffffffffffff168152602001908152602001600020543414610a12576040517f08c379a0000000000000000000000000000000000000000000000000000000008152600401610a0990612b1a565b60405180910390fd5b6001600860003373ffffffffffffffffffffffffffffffffffffffff1673ffffffffffffffffffffffffffffffffffffffff16815260200190815260200160002060006101000a81548160ff021916908315150217905550600160009054906101000a900473ffffffffffffffffffffffffffffffffffffffff1673ffffffffffffffffffffffffffffffffffffffff1660008054906101000a900473ffffffffffffffffffffffffffffffffffffffff1673ffffffffffffffffffffffffffffffffffffffff167f7e60eee2bb7fb00a7c2c55d3e7697bb6f1f6075e558a99a1677bd898b2d2f100610b03610b1c565b604051610b109190612715565b60405180910390a35050565b610b246123eb565b604051806101c0016040528060008054906101000a900473ffffffffffffffffffffffffffffffffffffffff1673ffffffffffffffffffffffffffffffffffffffff168152602001600160009054906101000a900473ffffffffffffffffffffffffffffffffffffffff1673ffffffffffffffffffffffffffffffffffffffff16815260200160025481526020016003548152602001600454815260200160058054610bcf90612b69565b80601f0160208091040260200160405190810160405280929190818152602001828054610bfb90612b69565b8015610c485780601f10610c1d57610100808354040283529160200191610c48565b820191906000526020600020905b815481529060010190602001808311610c2b57829003601f168201915b5050505050815260200160068054610c5f90612b69565b80601f0160208091040260200160405190810160405280929190818152602001828054610c8b90612b69565b8015610cd85780601f10610cad57610100808354040283529160200191610cd8565b820191906000526020600020905b815481529060010190602001808311610cbb57829003601f168201915b50505050508152602001600860008060009054906101000a900473ffffffffffffffffffffffffffffffffffffffff1673ffffffffffffffffffffffffffffffffffffffff1673ffffffffffffffffffffffffffffffffffffffff16815260200190815260200160002060009054906101000a900460ff161515815260200160086000600160009054906101000a900473ffffffffffffffffffffffffffffffffffffffff1673ffffffffffffffffffffffffffffffffffffffff1673ffffffffffffffffffffffffffffffffffffffff16815260200190815260200160002060009054906101000a900460ff1615158152602001600960008060009054906101000a900473ffffffffffffffffffffffffffffffffffffffff1673ffffffffffffffffffffffffffffffffffffffff1673ffffffffffffffffffffffffffffffffffffffff16815260200190815260200160002060009054906101000a900460ff161515815260200160096000600160009054906101000a900473ffffffffffffffffffffffffffffffffffffffff1673ffffffffffffffffffffffffffffffffffffffff1673ffffffffffffffffffffffffffffffffffffffff16815260200190815260200160002060009054906101000a900460ff1615158152602001600a60009054906101000a900460ff1615158152602001600a60019054906101000a900460ff1615158152602001600a60029054906101000a900473ffffffffffffffffffffffffffffffffffffffff1673ffffffffffffffffffffffffffffffffffffffff16815250905090565b60008054906101000a900473ffffffffffffffffffffffffffffffffffffffff1673ffffffffffffffffffffffffffffffffffffffff163373ffffffffffffffffffffffffffffffffffffffff161480610fce5750600160009054906101000a900473ffffffffffffffffffffffffffffffffffffffff1673ffffffffffffffffffffffffffffffffffffffff163373ffffffffffffffffffffffffffffffffffffffff16145b61100d576040517f08c379a000000000000000000000000000000000000000000000000000000000815260040161100490612794565b60405180910390fd5b600a60009054906101000a900460ff1661105c576040517f08c379a000000000000000000000000000000000000000000000000000000000815260040161105390612800565b60405180910390fd5b60016000600860008060009054906101000a900473ffffffffffffffffffffffffffffffffffffffff1673ffffffffffffffffffffffffffffffffffffffff1673ffffffffffffffffffffffffffffffffffffffff16815260200190815260200160002060009054906101000a900460ff168015611145575060086000600160009054906101000a900473ffffffffffffffffffffffffffffffffffffffff1673ffffffffffffffffffffffffffffffffffffffff1673ffffffffffffffffffffffffffffffffffffffff16815260200190815260200160002060009054906101000a900460ff165b90508115158115151461118d576040517f08c379a000000000000000000000000000000000000000000000000000000000815260040161118490612892565b60405180910390fd5b600960003373ffffffffffffffffffffffffffffffffffffffff1673ffffffffffffffffffffffffffffffffffffffff16815260200190815260200160002060009054906101000a900460ff16611219576040517f08c379a000000000000000000000000000000000000000000000000000000000815260040161121090612c0d565b60405180910390fd5b6000600960003373ffffffffffffffffffffffffffffffffffffffff1673ffffffffffffffffffffffffffffffffffffffff16815260200190815260200160002060006101000a81548160ff021916908315150217905550600160009054906101000a900473ffffffffffffffffffffffffffffffffffffffff1673ffffffffffffffffffffffffffffffffffffffff1660008054906101000a900473ffffffffffffffffffffffffffffffffffffffff1673ffffffffffffffffffffffffffffffffffffffff167f7e60eee2bb7fb00a7c2c55d3e7697bb6f1f6075e558a99a1677bd898b2d2f10061130a610b1c565b6040516113179190612715565b60405180910390a35050565b60008054906101000a900473ffffffffffffffffffffffffffffffffffffffff1673ffffffffffffffffffffffffffffffffffffffff163373ffffffffffffffffffffffffffffffffffffffff16146113b1576040517f08c379a00000000000000000000000000000000000000000000000000000000081526004016113a890612c79565b60405180910390fd5b600a60009054906101000a900460ff16611400576040517f08c379a00000000000000000000000000000000000000000000000000000000081526004016113f790612800565b60405180910390fd5b60016000600860008060009054906101000a900473ffffffffffffffffffffffffffffffffffffffff1673ffffffffffffffffffffffffffffffffffffffff1673ffffffffffffffffffffffffffffffffffffffff16815260200190815260200160002060009054906101000a900460ff1680156114e9575060086000600160009054906101000a900473ffffffffffffffffffffffffffffffffffffffff1673ffffffffffffffffffffffffffffffffffffffff1673ffffffffffffffffffffffffffffffffffffffff16815260200190815260200160002060009054906101000a900460ff165b905081151581151514611531576040517f08c379a000000000000000000000000000000000000000000000000000000000815260040161152890612892565b60405180910390fd5b600960008060009054906101000a900473ffffffffffffffffffffffffffffffffffffffff1673ffffffffffffffffffffffffffffffffffffffff1673ffffffffffffffffffffffffffffffffffffffff16815260200190815260200160002060009054906101000a900460ff16158015611618575060096000600160009054906101000a900473ffffffffffffffffffffffffffffffffffffffff1673ffffffffffffffffffffffffffffffffffffffff1673ffffffffffffffffffffffffffffffffffffffff16815260200190815260200160002060009054906101000a900460ff16155b611657576040517f08c379a000000000000000000000000000000000000000000000000000000000815260040161164e90612d0b565b60405180910390fd5b60025447101561169c576040517f08c379a000000000000000000000000000000000000000000000000000000000815260040161169390612d77565b60405180910390fd5b60008060009054906101000a900473ffffffffffffffffffffffffffffffffffffffff1673ffffffffffffffffffffffffffffffffffffffff1660076000600160009054906101000a900473ffffffffffffffffffffffffffffffffffffffff1673ffffffffffffffffffffffffffffffffffffffff1673ffffffffffffffffffffffffffffffffffffffff16815260200190815260200160002054604051611744906129e1565b60006040518083038185875af1925050503d8060008114611781576040519150601f19603f3d011682016040523d82523d6000602084013e611786565b606091505b505090506000600160009054906101000a900473ffffffffffffffffffffffffffffffffffffffff1673ffffffffffffffffffffffffffffffffffffffff16600760008060009054906101000a900473ffffffffffffffffffffffffffffffffffffffff1673ffffffffffffffffffffffffffffffffffffffff1673ffffffffffffffffffffffffffffffffffffffff16815260200190815260200160002054604051611832906129e1565b60006040518083038185875af1925050503d806000811461186f576040519150601f19603f3d011682016040523d82523d6000602084013e611874565b606091505b505090508180156118825750805b6118c1576040517f08c379a00000000000000000000000000000000000000000000000000000000081526004016118b890612de3565b60405180910390fd5b6000600860008060009054906101000a900473ffffffffffffffffffffffffffffffffffffffff1673ffffffffffffffffffffffffffffffffffffffff1673ffffffffffffffffffffffffffffffffffffffff16815260200190815260200160002060006101000a81548160ff021916908315150217905550600060086000600160009054906101000a900473ffffffffffffffffffffffffffffffffffffffff1673ffffffffffffffffffffffffffffffffffffffff1673ffffffffffffffffffffffffffffffffffffffff16815260200190815260200160002060006101000a81548160ff0219169083151502179055506000600a60006101000a81548160ff021916908315150217905550600160009054906101000a900473ffffffffffffffffffffffffffffffffffffffff1673ffffffffffffffffffffffffffffffffffffffff1660008054906101000a900473ffffffffffffffffffffffffffffffffffffffff1673ffffffffffffffffffffffffffffffffffffffff167f7e60eee2bb7fb00a7c2c55d3e7697bb6f1f6075e558a99a1677bd898b2d2f100611a68610b1c565b604051611a759190612715565b60405180910390a350505050565b60008054906101000a900473ffffffffffffffffffffffffffffffffffffffff1673ffffffffffffffffffffffffffffffffffffffff163373ffffffffffffffffffffffffffffffffffffffff161480611b2a5750600160009054906101000a900473ffffffffffffffffffffffffffffffffffffffff1673ffffffffffffffffffffffffffffffffffffffff163373ffffffffffffffffffffffffffffffffffffffff16145b611b69576040517f08c379a0000000000000000000000000000000000000000000000000000000008152600401611b6090612794565b60405180910390fd5b600a60009054906101000a900460ff16611bb8576040517f08c379a0000000000000000000000000000000000000000000000000000000008152600401611baf90612800565b60405180910390fd5b60016000600860008060009054906101000a900473ffffffffffffffffffffffffffffffffffffffff1673ffffffffffffffffffffffffffffffffffffffff1673ffffffffffffffffffffffffffffffffffffffff16815260200190815260200160002060009054906101000a900460ff168015611ca1575060086000600160009054906101000a900473ffffffffffffffffffffffffffffffffffffffff1673ffffffffffffffffffffffffffffffffffffffff1673ffffffffffffffffffffffffffffffffffffffff16815260200190815260200160002060009054906101000a900460ff165b905081151581151514611ce9576040517f08c379a0000000000000000000000000000000000000000000000000000000008152600401611ce090612892565b60405180910390fd5b600960003373ffffffffffffffffffffffffffffffffffffffff1673ffffffffffffffffffffffffffffffffffffffff16815260200190815260200160002060009054906101000a900460ff1615611d76576040517f08c379a0000000000000000000000000000000000000000000000000000000008152600401611d6d90612e75565b60405180910390fd5b6001600960003373ffffffffffffffffffffffffffffffffffffffff1673ffffffffffffffffffffffffffffffffffffffff16815260200190815260200160002060006101000a81548160ff021916908315150217905550600960008060009054906101000a900473ffffffffffffffffffffffffffffffffffffffff1673ffffffffffffffffffffffffffffffffffffffff1673ffffffffffffffffffffffffffffffffffffffff16815260200190815260200160002060009054906101000a900460ff168015611eb3575060096000600160009054906101000a900473ffffffffffffffffffffffffffffffffffffffff1673ffffffffffffffffffffffffffffffffffffffff1673ffffffffffffffffffffffffffffffffffffffff16815260200190815260200160002060009054906101000a900460ff165b1561230d57600254471015611efd576040517f08c379a0000000000000000000000000000000000000000000000000000000008152600401611ef490612ee1565b60405180910390fd5b60008060009054906101000a900473ffffffffffffffffffffffffffffffffffffffff1673ffffffffffffffffffffffffffffffffffffffff16600760008060009054906101000a900473ffffffffffffffffffffffffffffffffffffffff1673ffffffffffffffffffffffffffffffffffffffff1673ffffffffffffffffffffffffffffffffffffffff16815260200190815260200160002054604051611fa4906129e1565b60006040518083038185875af1925050503d8060008114611fe1576040519150601f19603f3d011682016040523d82523d6000602084013e611fe6565b606091505b505090506000600160009054906101000a900473ffffffffffffffffffffffffffffffffffffffff1673ffffffffffffffffffffffffffffffffffffffff1660076000600160009054906101000a900473ffffffffffffffffffffffffffffffffffffffff1673ffffffffffffffffffffffffffffffffffffffff1673ffffffffffffffffffffffffffffffffffffffff16815260200190815260200160002054604051612093906129e1565b60006040518083038185875af1925050503d80600081146120d0576040519150601f19603f3d011682016040523d82523d6000602084013e6120d5565b606091505b505090508180156120e35750805b612122576040517f08c379a000000000000000000000000000000000000000000000000000000000815260040161211990612de3565b60405180910390fd5b6000604051806040016040528060008054906101000a900473ffffffffffffffffffffffffffffffffffffffff1673ffffffffffffffffffffffffffffffffffffffff1673ffffffffffffffffffffffffffffffffffffffff168152602001600160009054906101000a900473ffffffffffffffffffffffffffffffffffffffff1673ffffffffffffffffffffffffffffffffffffffff1673ffffffffffffffffffffffffffffffffffffffff16815250905060005b60028110156122d2576000600960008484600281106121fa576121f9612f01565b5b602002015173ffffffffffffffffffffffffffffffffffffffff1673ffffffffffffffffffffffffffffffffffffffff16815260200190815260200160002060006101000a81548160ff02191690831515021790555060006008600084846002811061226957612268612f01565b5b602002015173ffffffffffffffffffffffffffffffffffffffff1673ffffffffffffffffffffffffffffffffffffffff16815260200190815260200160002060006101000a81548160ff02191690831515021790555080806122ca90612f5f565b9150506121d8565b506000600a60006101000a81548160ff0219169083151502179055506001600a60016101000a81548160ff0219169083151502179055505050505b600160009054906101000a900473ffffffffffffffffffffffffffffffffffffffff1673ffffffffffffffffffffffffffffffffffffffff1660008054906101000a900473ffffffffffffffffffffffffffffffffffffffff1673ffffffffffffffffffffffffffffffffffffffff167f7e60eee2bb7fb00a7c2c55d3e7697bb6f1f6075e558a99a1677bd898b2d2f1006123a6610b1c565b6040516123b39190612715565b60405180910390a35050565b600081836123cd9190612fa8565b905092915050565b600081836123e39190613031565b905092915050565b604051806101c00160405280600073ffffffffffffffffffffffffffffffffffffffff168152602001600073ffffffffffffffffffffffffffffffffffffffff1681526020016000815260200160008152602001600081526020016060815260200160608152602001600015158152602001600015158152602001600015158152602001600015158152602001600015158152602001600015158152602001600073ffffffffffffffffffffffffffffffffffffffff1681525090565b600073ffffffffffffffffffffffffffffffffffffffff82169050919050565b60006124d3826124a8565b9050919050565b6124e3816124c8565b82525050565b60006020820190506124fe60008301846124da565b92915050565b61250d816124c8565b82525050565b6000819050919050565b61252681612513565b82525050565b600081519050919050565b600082825260208201905092915050565b60005b8381101561256657808201518184015260208101905061254b565b83811115612575576000848401525b50505050565b6000601f19601f8301169050919050565b60006125978261252c565b6125a18185612537565b93506125b1818560208601612548565b6125ba8161257b565b840191505092915050565b60008115159050919050565b6125da816125c5565b82525050565b60006101c0830160008301516125f96000860182612504565b50602083015161260c6020860182612504565b50604083015161261f604086018261251d565b506060830151612632606086018261251d565b506080830151612645608086018261251d565b5060a083015184820360a086015261265d828261258c565b91505060c083015184820360c0860152612677828261258c565b91505060e083015161268c60e08601826125d1565b506101008301516126a16101008601826125d1565b506101208301516126b66101208601826125d1565b506101408301516126cb6101408601826125d1565b506101608301516126e06101608601826125d1565b506101808301516126f56101808601826125d1565b506101a083015161270a6101a0860182612504565b508091505092915050565b6000602082019050818103600083015261272f81846125e0565b905092915050565b600082825260208201905092915050565b7f4f6e6c7920616c6c6f772061677265656d656e74207061727469657321000000600082015250565b600061277e601d83612737565b915061278982612748565b602082019050919050565b600060208201905081810360008301526127ad81612771565b9050919050565b7f41677265656d656e74206973206e6f7420616374697665000000000000000000600082015250565b60006127ea601783612737565b91506127f5826127b4565b602082019050919050565b60006020820190508181036000830152612819816127dd565b9050919050565b7f41677265656d656e742073746174757320646f6573206e6f74207065726d697460008201527f207468697320616374696f6e2e00000000000000000000000000000000000000602082015250565b600061287c602d83612737565b915061288782612820565b604082019050919050565b600060208201905081810360008301526128ab8161286f565b9050919050565b7f4e6f207374616b656420796574212e0000000000000000000000000000000000600082015250565b60006128e8600f83612737565b91506128f3826128b2565b602082019050919050565b60006020820190508181036000830152612917816128db565b9050919050565b7f4e6f7420656e6f756768204d61746963206c65667420746f207769746864726160008201527f772e000000000000000000000000000000000000000000000000000000000000602082015250565b600061297a602283612737565b91506129858261291e565b604082019050919050565b600060208201905081810360008301526129a98161296d565b9050919050565b600081905092915050565b50565b60006129cb6000836129b0565b91506129d6826129bb565b600082019050919050565b60006129ec826129be565b9150819050919050565b7f5472616e73666572206661696c65642e00000000000000000000000000000000600082015250565b6000612a2c601083612737565b9150612a37826129f6565b602082019050919050565b60006020820190508181036000830152612a5b81612a1f565b9050919050565b7f416c7265616479207374616b652074686520616d6f756e742e00000000000000600082015250565b6000612a98601983612737565b9150612aa382612a62565b602082019050919050565b60006020820190508181036000830152612ac781612a8b565b9050919050565b7f496e636f7272656374207374616b696e6720616d6f756e742073656e742e0000600082015250565b6000612b04601e83612737565b9150612b0f82612ace565b602082019050919050565b60006020820190508181036000830152612b3381612af7565b9050919050565b7f4e487b7100000000000000000000000000000000000000000000000000000000600052602260045260246000fd5b60006002820490506001821680612b8157607f821691505b60208210811415612b9557612b94612b3a565b5b50919050565b7f446f65736e2774206861766520612063616e63656c207265717565737420746f60008201527f207265766f6b6500000000000000000000000000000000000000000000000000602082015250565b6000612bf7602783612737565b9150612c0282612b9b565b604082019050919050565b60006020820190508181036000830152612c2681612bea565b9050919050565b7f4f6e6c7920616c6c6f772061677265656d656e74206275796572000000000000600082015250565b6000612c63601a83612737565b9150612c6e82612c2d565b602082019050919050565b60006020820190508181036000830152612c9281612c56565b9050919050565b7f43616e6e6f7420636f6e6669726d206173206174206c65617374206f6e65202060008201527f7265717565737465642063616e63656c21000000000000000000000000000000602082015250565b6000612cf5603183612737565b9150612d0082612c99565b604082019050919050565b60006020820190508181036000830152612d2481612ce8565b9050919050565b7f4e6f7420656e6f756768204d6174696300000000000000000000000000000000600082015250565b6000612d61601083612737565b9150612d6c82612d2b565b602082019050919050565b60006020820190508181036000830152612d9081612d54565b9050919050565b7f5472616e7366657220686173206661696c656400000000000000000000000000600082015250565b6000612dcd601383612737565b9150612dd882612d97565b602082019050919050565b60006020820190508181036000830152612dfc81612dc0565b9050919050565b7f20416c72656164792069737375656420612063616e63656c6c6174696f6e207260008201527f6571756573742e00000000000000000000000000000000000000000000000000602082015250565b6000612e5f602783612737565b9150612e6a82612e03565b604082019050919050565b60006020820190508181036000830152612e8e81612e52565b9050919050565b7f4e6f7420656e6f756768204d617469632e000000000000000000000000000000600082015250565b6000612ecb601183612737565b9150612ed682612e95565b602082019050919050565b60006020820190508181036000830152612efa81612ebe565b9050919050565b7f4e487b7100000000000000000000000000000000000000000000000000000000600052603260045260246000fd5b7f4e487b7100000000000000000000000000000000000000000000000000000000600052601160045260246000fd5b6000612f6a82612513565b91507fffffffffffffffffffffffffffffffffffffffffffffffffffffffffffffffff821415612f9d57612f9c612f30565b5b600182019050919050565b6000612fb382612513565b9150612fbe83612513565b9250817fffffffffffffffffffffffffffffffffffffffffffffffffffffffffffffffff0483118215151615612ff757612ff6612f30565b5b828202905092915050565b7f4e487b7100000000000000000000000000000000000000000000000000000000600052601260045260246000fd5b600061303c82612513565b915061304783612513565b92508261305757613056613002565b5b82820490509291505056fea26469706673582212201915027c85e9a7de9e1577cf0836686102a7b565241be8b24594193b7613c2d264736f6c634300080b0033a264697066735822122076676440a2d8e25b31dde3d1ed50e7f9044df498ed8b3e03f4cb55cbc10dfa1764736f6c634300080b0033",
  "immutableReferences": {},
  "source": "// SPDX-License-Identifier: UNLICENSED\npragma solidity ^0.8.0;\n\nimport \"@openzeppelin/contracts/utils/math/SafeMath.sol\";\nimport \"@openzeppelin/contracts/utils/Counters.sol\";\nimport \"./Agreement.sol\";\n\ncontract AgreementContract {\n    using SafeMath for uint256;\n    using Counters for Counters.Counter;\n\n    Agreement[] public agreements;\n    Counters.Counter private _agreementIds;\n\n    mapping(address => Agreement[]) public agreementMap;\n    mapping(address => uint256) public agreementImap;\n\n    event CreateAgreement(\n        address indexed buyer,\n        address indexed seller,\n        uint256 price,\n        address agreementAddress,\n        string  title,\n        string  description\n    );\n\n    function  agreementCreate(\n        address payable _buyer,\n        address payable _seller,\n        uint256 _price,\n        uint256 _statePercent,\n        uint256 _sellerPercent,\n        string memory _title,\n        string memory _description\n    ) public {\n        Agreement agreement = new Agreement(\n            _buyer,\n            _seller,\n            _price,\n            _statePercent,\n            _sellerPercent,\n            _title,\n            _description\n        );\n        agreements.push(agreement);\n        uint256 currentIndex = _agreementIds.current();\n        address agreementAdress = agreement.agreementAddress();\n        agreementImap[agreementAdress] = currentIndex;\n        _agreementIds.increment();\n        agreementMap[_buyer].push(agreement);\n        agreementMap[_seller].push(agreement);\n        emit CreateAgreement(_buyer, _seller, _price, agreementAdress,_title, _description);\n    }\n\n    function getAgreementByParties(address _party)\n        public\n        view\n        returns (Agreement[] memory)\n    {\n        return agreementMap[_party];\n    }\n\n    function getAgreementByIndex(uint256 _index)\n        public\n        view\n        returns (Agreement)\n    {\n        return agreements[_index];\n    }\n\n    function getAgreementByAddress(address _addr)\n        public\n        view\n        returns (Agreement)\n    {\n        uint256 idx = agreementImap[_addr];\n        return agreements[idx];\n    }\n\n    function getAllAgreements() public view returns (Agreement[] memory) {\n        return agreements;\n    }\n}\n",
  "sourcePath": "/Users/cc/Documents/Hachathon/Escrow_service/contracts/AgreementContract.sol",
  "compiler": {
    "name": "solc",
    "version": "0.8.11+commit.d7f03943.Emscripten.clang"
  },
  "schemaVersion": "3.4.6",
  "updatedAt": "2022-03-17T09:02:51.476Z",
  "networkType": "ethereum",
  "devdoc": {
    "kind": "dev",
    "methods": {},
    "version": 1
  },
  "userdoc": {
    "kind": "user",
    "methods": {},
    "version": 1
  }
}