{
    "_format": "hh-sol-artifact-1",
    "contractName": "RandomNumberGenerator",
    "sourceName": "contracts/RandomNumberGenerator.sol",
    "abi": [
        {
            "inputs": [
                {
                    "internalType": "address",
                    "name": "VRFCoordinator",
                    "type": "address"
                },
                {
                    "internalType": "address",
                    "name": "LINKToken",
                    "type": "address"
                },
                {
                    "internalType": "bytes32",
                    "name": "KeyHash",
                    "type": "bytes32"
                }
            ],
            "stateMutability": "nonpayable",
            "type": "constructor"
        },
        {
            "inputs": [],
            "name": "getRandom",
            "outputs": [
                {
                    "internalType": "uint256",
                    "name": "",
                    "type": "uint256"
                }
            ],
            "stateMutability": "view",
            "type": "function"
        },
        {
            "inputs": [
                {
                    "internalType": "uint256",
                    "name": "maxValue",
                    "type": "uint256"
                }
            ],
            "name": "getRandomNumber",
            "outputs": [
                {
                    "internalType": "bytes32",
                    "name": "requestId",
                    "type": "bytes32"
                }
            ],
            "stateMutability": "nonpayable",
            "type": "function"
        },
        {
            "inputs": [],
            "name": "maxRange",
            "outputs": [
                {
                    "internalType": "uint256",
                    "name": "",
                    "type": "uint256"
                }
            ],
            "stateMutability": "view",
            "type": "function"
        },
        {
            "inputs": [],
            "name": "randomResult",
            "outputs": [
                {
                    "internalType": "uint256",
                    "name": "",
                    "type": "uint256"
                }
            ],
            "stateMutability": "view",
            "type": "function"
        },
        {
            "inputs": [
                {
                    "internalType": "bytes32",
                    "name": "requestId",
                    "type": "bytes32"
                },
                {
                    "internalType": "uint256",
                    "name": "randomness",
                    "type": "uint256"
                }
            ],
            "name": "rawFulfillRandomness",
            "outputs": [],
            "stateMutability": "nonpayable",
            "type": "function"
        }
    ],
    "bytecode": "0x60c060405234801561001057600080fd5b506040516108133803806108138339818101604052606081101561003357600080fd5b8101908080519060200190929190805190602001909291908051906020019092919050505082828173ffffffffffffffffffffffffffffffffffffffff1660a08173ffffffffffffffffffffffffffffffffffffffff1660601b815250508073ffffffffffffffffffffffffffffffffffffffff1660808173ffffffffffffffffffffffffffffffffffffffff1660601b81525050505080600181905550655af3107a400060028190555050505060805160601c60a05160601c6106ff6101146000398061013e52806103c3525080610236528061038752506106ff6000f3fe608060405234801561001057600080fd5b50600436106100575760003560e01c806342619f661461005c57806389ce16cc1461007a57806394985ddd14610098578063aacc5a17146100d0578063b37217a4146100ee575b600080fd5b610064610130565b6040518082815260200191505060405180910390f35b610082610136565b6040518082815260200191505060405180910390f35b6100ce600480360360408110156100ae57600080fd5b81019080803590602001909291908035906020019092919050505061013c565b005b6100d861020b565b6040518082815260200191505060405180910390f35b61011a6004803603602081101561010457600080fd5b8101908080359060200190929190505050610228565b6040518082815260200191505060405180910390f35b60035481565b60045481565b7f000000000000000000000000000000000000000000000000000000000000000073ffffffffffffffffffffffffffffffffffffffff163373ffffffffffffffffffffffffffffffffffffffff16146101fd576040517f08c379a000000000000000000000000000000000000000000000000000000000815260040180806020018281038252601f8152602001807f4f6e6c7920565246436f6f7264696e61746f722063616e2066756c66696c6c0081525060200191505060405180910390fd5b6102078282610361565b5050565b60008060016004546003548161021d57fe5b060190508091505090565b6000816004819055506002547f000000000000000000000000000000000000000000000000000000000000000073ffffffffffffffffffffffffffffffffffffffff166370a08231306040518263ffffffff1660e01b8152600401808273ffffffffffffffffffffffffffffffffffffffff16815260200191505060206040518083038186803b1580156102bb57600080fd5b505afa1580156102cf573d6000803e3d6000fd5b505050506040513d60208110156102e557600080fd5b81019080805190602001909291905050501161034c576040517f08c379a000000000000000000000000000000000000000000000000000000000815260040180806020018281038252602b81526020018061069f602b913960400191505060405180910390fd5b61035a600154600254610383565b9050919050565b60008290508290506001600454838161037657fe5b0601600381905550505050565b60007f000000000000000000000000000000000000000000000000000000000000000073ffffffffffffffffffffffffffffffffffffffff16634000aea07f00000000000000000000000000000000000000000000000000000000000000008486600060405160200180838152602001828152602001925050506040516020818303038152906040526040518463ffffffff1660e01b8152600401808473ffffffffffffffffffffffffffffffffffffffff16815260200183815260200180602001828103825283818151815260200191508051906020019080838360005b8381101561047d578082015181840152602081019050610462565b50505050905090810190601f1680156104aa5780820380516001836020036101000a031916815260200191505b50945050505050602060405180830381600087803b1580156104cb57600080fd5b505af11580156104df573d6000803e3d6000fd5b505050506040513d60208110156104f557600080fd5b81019080805190602001909291905050505060006105288460003060008089815260200190815260200160002054610579565b90506105506001600080878152602001908152602001600020546105dd90919063ffffffff16565b600080868152602001908152602001600020819055506105708482610665565b91505092915050565b600084848484604051602001808581526020018481526020018373ffffffffffffffffffffffffffffffffffffffff1681526020018281526020019450505050506040516020818303038152906040528051906020012060001c9050949350505050565b60008082840190508381101561065b576040517f08c379a000000000000000000000000000000000000000000000000000000000815260040180806020018281038252601b8152602001807f536166654d6174683a206164646974696f6e206f766572666c6f77000000000081525060200191505060405180910390fd5b8091505092915050565b6000828260405160200180838152602001828152602001925050506040516020818303038152906040528051906020012090509291505056fe4e6f7420656e6f756768204c494e4b202d2066696c6c20636f6e7472616374207769746820666175636574a26469706673582212200225e8e42fbfb800fc29483650c22ee7738c704d45263b02139a995b85f18ab164736f6c634300060c0033",
    "linkReferences": {},
    "deployedLinkReferences": {}
}